{
  "address": "0x6b53109464a574F4E2BBE1Bd8477DfB69bD8cc42",
  "abi": [
    {
      "inputs": [
        {
          "internalType": "address",
          "name": "priceProviderAddress",
          "type": "address"
        },
        {
          "internalType": "uint256",
          "name": "liquidationThreshold",
          "type": "uint256"
        },
        {
          "internalType": "string",
          "name": "name",
          "type": "string"
        },
        {
          "internalType": "string",
          "name": "symbol",
          "type": "string"
        },
        {
          "internalType": "address",
          "name": "debtToken",
          "type": "address"
        },
        {
          "internalType": "address",
          "name": "collateralToken",
          "type": "address"
        },
        {
          "internalType": "string",
          "name": "baseURI",
          "type": "string"
        },
        {
          "internalType": "uint256",
          "name": "liquidationMaxHR",
          "type": "uint256"
        },
        {
          "internalType": "uint256",
          "name": "liquidationPenalty",
          "type": "uint256"
        },
        {
          "internalType": "uint256",
          "name": "closingFee",
          "type": "uint256"
        }
      ],
      "stateMutability": "nonpayable",
      "type": "constructor"
    },
    {
      "anonymous": false,
      "inputs": [
        {
          "indexed": false,
          "internalType": "uint256",
          "name": "vaultID",
          "type": "uint256"
        },
        {
          "indexed": false,
          "internalType": "address",
          "name": "creator",
          "type": "address"
        }
      ],
      "name": "AccountCreated",
      "type": "event"
    },
    {
      "anonymous": false,
      "inputs": [
        {
          "indexed": false,
          "internalType": "uint256",
          "name": "accountID",
          "type": "uint256"
        },
        {
          "indexed": false,
          "internalType": "address",
          "name": "owner",
          "type": "address"
        },
        {
          "indexed": false,
          "internalType": "address",
          "name": "buyer",
          "type": "address"
        },
        {
          "indexed": false,
          "internalType": "uint256",
          "name": "debtRepaid",
          "type": "uint256"
        },
        {
          "indexed": false,
          "internalType": "uint256",
          "name": "collateralLiquidated",
          "type": "uint256"
        },
        {
          "indexed": false,
          "internalType": "uint256",
          "name": "closingFee",
          "type": "uint256"
        }
      ],
      "name": "AccountLiquidated",
      "type": "event"
    },
    {
      "anonymous": false,
      "inputs": [
        {
          "indexed": true,
          "internalType": "address",
          "name": "account",
          "type": "address"
        },
        {
          "indexed": true,
          "internalType": "address",
          "name": "addedBy",
          "type": "address"
        }
      ],
      "name": "AdministratorAdded",
      "type": "event"
    },
    {
      "anonymous": false,
      "inputs": [
        {
          "indexed": true,
          "internalType": "address",
          "name": "account",
          "type": "address"
        },
        {
          "indexed": true,
          "internalType": "address",
          "name": "removedBy",
          "type": "address"
        }
      ],
      "name": "AdministratorRemoved",
      "type": "event"
    },
    {
      "anonymous": false,
      "inputs": [
        {
          "indexed": true,
          "internalType": "address",
          "name": "owner",
          "type": "address"
        },
        {
          "indexed": true,
          "internalType": "address",
          "name": "approved",
          "type": "address"
        },
        {
          "indexed": true,
          "internalType": "uint256",
          "name": "tokenId",
          "type": "uint256"
        }
      ],
      "name": "Approval",
      "type": "event"
    },
    {
      "anonymous": false,
      "inputs": [
        {
          "indexed": true,
          "internalType": "address",
          "name": "owner",
          "type": "address"
        },
        {
          "indexed": true,
          "internalType": "address",
          "name": "operator",
          "type": "address"
        },
        {
          "indexed": false,
          "internalType": "bool",
          "name": "approved",
          "type": "bool"
        }
      ],
      "name": "ApprovalForAll",
      "type": "event"
    },
    {
      "anonymous": false,
      "inputs": [
        {
          "indexed": true,
          "internalType": "address",
          "name": "account",
          "type": "address"
        },
        {
          "indexed": true,
          "internalType": "address",
          "name": "admin",
          "type": "address"
        }
      ],
      "name": "CircuitBreakerAdded",
      "type": "event"
    },
    {
      "anonymous": false,
      "inputs": [
        {
          "indexed": true,
          "internalType": "address",
          "name": "account",
          "type": "address"
        },
        {
          "indexed": true,
          "internalType": "address",
          "name": "admin",
          "type": "address"
        }
      ],
      "name": "CircuitBreakerRemoved",
      "type": "event"
    },
    {
      "anonymous": false,
      "inputs": [
        {
          "indexed": false,
          "internalType": "uint256",
          "name": "accountID",
          "type": "uint256"
        },
        {
          "indexed": false,
          "internalType": "uint256",
          "name": "amount",
          "type": "uint256"
        }
      ],
      "name": "CollateralDeposited",
      "type": "event"
    },
    {
      "anonymous": false,
      "inputs": [
        {
          "indexed": false,
          "internalType": "uint256",
          "name": "accountID",
          "type": "uint256"
        },
        {
          "indexed": false,
          "internalType": "uint256",
          "name": "amount",
          "type": "uint256"
        }
      ],
      "name": "CollateralWithdrawn",
      "type": "event"
    },
    {
      "anonymous": false,
      "inputs": [
        {
          "indexed": false,
          "internalType": "uint256",
          "name": "interestYield",
          "type": "uint256"
        },
        {
          "indexed": false,
          "internalType": "uint256",
          "name": "timeElapsed",
          "type": "uint256"
        }
      ],
      "name": "InterestAccrued",
      "type": "event"
    },
    {
      "anonymous": false,
      "inputs": [
        {
          "indexed": false,
          "internalType": "address",
          "name": "account",
          "type": "address"
        }
      ],
      "name": "Paused",
      "type": "event"
    },
    {
      "anonymous": false,
      "inputs": [
        {
          "indexed": true,
          "internalType": "bytes32",
          "name": "role",
          "type": "bytes32"
        },
        {
          "indexed": true,
          "internalType": "bytes32",
          "name": "previousAdminRole",
          "type": "bytes32"
        },
        {
          "indexed": true,
          "internalType": "bytes32",
          "name": "newAdminRole",
          "type": "bytes32"
        }
      ],
      "name": "RoleAdminChanged",
      "type": "event"
    },
    {
      "anonymous": false,
      "inputs": [
        {
          "indexed": true,
          "internalType": "bytes32",
          "name": "role",
          "type": "bytes32"
        },
        {
          "indexed": true,
          "internalType": "address",
          "name": "account",
          "type": "address"
        },
        {
          "indexed": true,
          "internalType": "address",
          "name": "sender",
          "type": "address"
        }
      ],
      "name": "RoleGranted",
      "type": "event"
    },
    {
      "anonymous": false,
      "inputs": [
        {
          "indexed": true,
          "internalType": "bytes32",
          "name": "role",
          "type": "bytes32"
        },
        {
          "indexed": true,
          "internalType": "address",
          "name": "account",
          "type": "address"
        },
        {
          "indexed": true,
          "internalType": "address",
          "name": "sender",
          "type": "address"
        }
      ],
      "name": "RoleRevoked",
      "type": "event"
    },
    {
      "anonymous": false,
      "inputs": [
        {
          "indexed": false,
          "internalType": "uint256",
          "name": "accountID",
          "type": "uint256"
        },
        {
          "indexed": false,
          "internalType": "uint256",
          "name": "amount",
          "type": "uint256"
        }
      ],
      "name": "TokenBorrowed",
      "type": "event"
    },
    {
      "anonymous": false,
      "inputs": [
        {
          "indexed": false,
          "internalType": "uint256",
          "name": "accountID",
          "type": "uint256"
        },
        {
          "indexed": false,
          "internalType": "uint256",
          "name": "amount",
          "type": "uint256"
        },
        {
          "indexed": false,
          "internalType": "uint256",
          "name": "closingFee",
          "type": "uint256"
        }
      ],
      "name": "TokenRepaid",
      "type": "event"
    },
    {
      "anonymous": false,
      "inputs": [
        {
          "indexed": true,
          "internalType": "address",
          "name": "from",
          "type": "address"
        },
        {
          "indexed": true,
          "internalType": "address",
          "name": "to",
          "type": "address"
        },
        {
          "indexed": true,
          "internalType": "uint256",
          "name": "tokenId",
          "type": "uint256"
        }
      ],
      "name": "Transfer",
      "type": "event"
    },
    {
      "anonymous": false,
      "inputs": [
        {
          "indexed": false,
          "internalType": "address",
          "name": "account",
          "type": "address"
        }
      ],
      "name": "Unpaused",
      "type": "event"
    },
    {
      "anonymous": false,
      "inputs": [
        {
          "indexed": false,
          "internalType": "string",
          "name": "uri",
          "type": "string"
        }
      ],
      "name": "UpdatedTokenURI",
      "type": "event"
    },
    {
      "inputs": [],
      "name": "APR",
      "outputs": [
        {
          "internalType": "uint256",
          "name": "",
          "type": "uint256"
        }
      ],
      "stateMutability": "view",
      "type": "function"
    },
    {
      "inputs": [],
      "name": "CIRCUIT_BREAKER_ROLE",
      "outputs": [
        {
          "internalType": "bytes32",
          "name": "",
          "type": "bytes32"
        }
      ],
      "stateMutability": "view",
      "type": "function"
    },
    {
      "inputs": [],
      "name": "CLOSING_FEE_DECIMALS",
      "outputs": [
        {
          "internalType": "uint256",
          "name": "",
          "type": "uint256"
        }
      ],
      "stateMutability": "view",
      "type": "function"
    },
    {
      "inputs": [],
      "name": "DEFAULT_ADMIN_ROLE",
      "outputs": [
        {
          "internalType": "bytes32",
          "name": "",
          "type": "bytes32"
        }
      ],
      "stateMutability": "view",
      "type": "function"
    },
    {
      "inputs": [],
      "name": "HEALTH_RATIO_DECIMALS",
      "outputs": [
        {
          "internalType": "uint256",
          "name": "",
          "type": "uint256"
        }
      ],
      "stateMutability": "view",
      "type": "function"
    },
    {
      "inputs": [],
      "name": "INTEREST_RATE_DECIMALS",
      "outputs": [
        {
          "internalType": "uint8",
          "name": "",
          "type": "uint8"
        }
      ],
      "stateMutability": "view",
      "type": "function"
    },
    {
      "inputs": [],
      "name": "LIQUIDATION_PENALTY_DECIMALS",
      "outputs": [
        {
          "internalType": "uint256",
          "name": "",
          "type": "uint256"
        }
      ],
      "stateMutability": "view",
      "type": "function"
    },
    {
      "inputs": [],
      "name": "LIQUIDATION_THRESHOLD_DECIMALS",
      "outputs": [
        {
          "internalType": "uint256",
          "name": "",
          "type": "uint256"
        }
      ],
      "stateMutability": "view",
      "type": "function"
    },
    {
      "inputs": [],
      "name": "SECONDS_PER_DAY",
      "outputs": [
        {
          "internalType": "uint256",
          "name": "",
          "type": "uint256"
        }
      ],
      "stateMutability": "view",
      "type": "function"
    },
    {
      "inputs": [
        {
          "internalType": "address",
          "name": "newAdmin",
          "type": "address"
        }
      ],
      "name": "addAdmininstrator",
      "outputs": [],
      "stateMutability": "nonpayable",
      "type": "function"
    },
    {
      "inputs": [
        {
          "internalType": "address",
          "name": "account",
          "type": "address"
        }
      ],
      "name": "addCircuitBreaker",
      "outputs": [],
      "stateMutability": "nonpayable",
      "type": "function"
    },
    {
      "inputs": [
        {
          "internalType": "address",
          "name": "to",
          "type": "address"
        },
        {
          "internalType": "uint256",
          "name": "tokenId",
          "type": "uint256"
        }
      ],
      "name": "approve",
      "outputs": [],
      "stateMutability": "nonpayable",
      "type": "function"
    },
    {
      "inputs": [
        {
          "internalType": "address",
          "name": "owner",
          "type": "address"
        }
      ],
      "name": "balanceOf",
      "outputs": [
        {
          "internalType": "uint256",
          "name": "",
          "type": "uint256"
        }
      ],
      "stateMutability": "view",
      "type": "function"
    },
    {
      "inputs": [],
      "name": "baseUri",
      "outputs": [
        {
          "internalType": "string",
          "name": "",
          "type": "string"
        }
      ],
      "stateMutability": "view",
      "type": "function"
    },
    {
      "inputs": [
        {
          "internalType": "uint256",
          "name": "accountID",
          "type": "uint256"
        },
        {
          "internalType": "uint256",
          "name": "amount",
          "type": "uint256"
        }
      ],
      "name": "borrow",
      "outputs": [],
      "stateMutability": "nonpayable",
      "type": "function"
    },
    {
      "inputs": [
        {
          "internalType": "uint256",
          "name": "_collateralAmount",
          "type": "uint256"
        }
      ],
      "name": "calculateCollateralValue",
      "outputs": [
        {
          "internalType": "uint256",
          "name": "",
          "type": "uint256"
        }
      ],
      "stateMutability": "view",
      "type": "function"
    },
    {
      "inputs": [
        {
          "internalType": "uint256",
          "name": "_accountID",
          "type": "uint256"
        }
      ],
      "name": "calculateHealthRatio",
      "outputs": [
        {
          "internalType": "uint256",
          "name": "",
          "type": "uint256"
        }
      ],
      "stateMutability": "view",
      "type": "function"
    },
    {
      "inputs": [
        {
          "internalType": "uint256",
          "name": "amountLiquidated",
          "type": "uint256"
        }
      ],
      "name": "calculateLiquidatorReward",
      "outputs": [
        {
          "internalType": "uint256",
          "name": "",
          "type": "uint256"
        }
      ],
      "stateMutability": "view",
      "type": "function"
    },
    {
      "inputs": [
        {
          "internalType": "uint256",
          "name": "_principalAmount",
          "type": "uint256"
        }
      ],
      "name": "calculatePrincipalValue",
      "outputs": [
        {
          "internalType": "uint256",
          "name": "",
          "type": "uint256"
        }
      ],
      "stateMutability": "view",
      "type": "function"
    },
    {
      "inputs": [
        {
          "internalType": "address",
          "name": "priceProviderAddress",
          "type": "address"
        }
      ],
      "name": "changePriceProvider",
      "outputs": [],
      "stateMutability": "nonpayable",
      "type": "function"
    },
    {
      "inputs": [],
      "name": "claimLiquidationRewards",
      "outputs": [
        {
          "internalType": "uint256",
          "name": "",
          "type": "uint256"
        }
      ],
      "stateMutability": "nonpayable",
      "type": "function"
    },
    {
      "inputs": [],
      "name": "closingFee",
      "outputs": [
        {
          "internalType": "uint256",
          "name": "",
          "type": "uint256"
        }
      ],
      "stateMutability": "view",
      "type": "function"
    },
    {
      "inputs": [
        {
          "internalType": "uint256",
          "name": "accountID",
          "type": "uint256"
        }
      ],
      "name": "collateralAmount",
      "outputs": [
        {
          "internalType": "uint256",
          "name": "",
          "type": "uint256"
        }
      ],
      "stateMutability": "view",
      "type": "function"
    },
    {
      "inputs": [],
      "name": "collateralToken",
      "outputs": [
        {
          "internalType": "contract ERC20",
          "name": "",
          "type": "address"
        }
      ],
      "stateMutability": "view",
      "type": "function"
    },
    {
      "inputs": [],
      "name": "compoundInterest",
      "outputs": [],
      "stateMutability": "nonpayable",
      "type": "function"
    },
    {
      "inputs": [],
      "name": "dailyIssuanceLimit",
      "outputs": [
        {
          "internalType": "uint256",
          "name": "",
          "type": "uint256"
        }
      ],
      "stateMutability": "view",
      "type": "function"
    },
    {
      "inputs": [],
      "name": "debtToken",
      "outputs": [
        {
          "internalType": "contract ERC20",
          "name": "",
          "type": "address"
        }
      ],
      "stateMutability": "view",
      "type": "function"
    },
    {
      "inputs": [
        {
          "internalType": "uint256",
          "name": "accountID",
          "type": "uint256"
        },
        {
          "internalType": "uint256",
          "name": "amount",
          "type": "uint256"
        }
      ],
      "name": "deposit",
      "outputs": [],
      "stateMutability": "nonpayable",
      "type": "function"
    },
    {
      "inputs": [
        {
          "internalType": "uint256",
          "name": "accountID",
          "type": "uint256"
        }
      ],
      "name": "exists",
      "outputs": [
        {
          "internalType": "bool",
          "name": "",
          "type": "bool"
        }
      ],
      "stateMutability": "view",
      "type": "function"
    },
    {
      "inputs": [
        {
          "internalType": "uint256",
          "name": "accountID",
          "type": "uint256"
        }
      ],
      "name": "getAccountInterestIndex",
      "outputs": [
        {
          "internalType": "uint256",
          "name": "",
          "type": "uint256"
        }
      ],
      "stateMutability": "view",
      "type": "function"
    },
    {
      "inputs": [
        {
          "internalType": "uint256",
          "name": "tokenId",
          "type": "uint256"
        }
      ],
      "name": "getApproved",
      "outputs": [
        {
          "internalType": "address",
          "name": "",
          "type": "address"
        }
      ],
      "stateMutability": "view",
      "type": "function"
    },
    {
      "inputs": [],
      "name": "getAvailableDebt",
      "outputs": [
        {
          "internalType": "uint256",
          "name": "",
          "type": "uint256"
        }
      ],
      "stateMutability": "view",
      "type": "function"
    },
    {
      "inputs": [],
      "name": "getCollateralPrice",
      "outputs": [
        {
          "internalType": "uint256",
          "name": "",
          "type": "uint256"
        }
      ],
      "stateMutability": "view",
      "type": "function"
    },
    {
      "inputs": [],
      "name": "getDebtPrice",
      "outputs": [
        {
          "internalType": "uint256",
          "name": "",
          "type": "uint256"
        }
      ],
      "stateMutability": "view",
      "type": "function"
    },
    {
      "inputs": [],
      "name": "getGracePeriod",
      "outputs": [
        {
          "internalType": "uint256",
          "name": "",
          "type": "uint256"
        }
      ],
      "stateMutability": "view",
      "type": "function"
    },
    {
      "inputs": [],
      "name": "getIssuanceLeft",
      "outputs": [
        {
          "internalType": "uint256",
          "name": "",
          "type": "uint256"
        }
      ],
      "stateMutability": "view",
      "type": "function"
    },
    {
      "inputs": [
        {
          "internalType": "bytes32",
          "name": "role",
          "type": "bytes32"
        }
      ],
      "name": "getRoleAdmin",
      "outputs": [
        {
          "internalType": "bytes32",
          "name": "",
          "type": "bytes32"
        }
      ],
      "stateMutability": "view",
      "type": "function"
    },
    {
      "inputs": [
        {
          "internalType": "bytes32",
          "name": "role",
          "type": "bytes32"
        },
        {
          "internalType": "address",
          "name": "account",
          "type": "address"
        }
      ],
      "name": "grantRole",
      "outputs": [],
      "stateMutability": "nonpayable",
      "type": "function"
    },
    {
      "inputs": [
        {
          "internalType": "bytes32",
          "name": "role",
          "type": "bytes32"
        },
        {
          "internalType": "address",
          "name": "account",
          "type": "address"
        }
      ],
      "name": "hasRole",
      "outputs": [
        {
          "internalType": "bool",
          "name": "",
          "type": "bool"
        }
      ],
      "stateMutability": "view",
      "type": "function"
    },
    {
      "inputs": [],
      "name": "interestIndex",
      "outputs": [
        {
          "internalType": "uint256",
          "name": "",
          "type": "uint256"
        }
      ],
      "stateMutability": "view",
      "type": "function"
    },
    {
      "inputs": [
        {
          "internalType": "address",
          "name": "account",
          "type": "address"
        }
      ],
      "name": "isAdmin",
      "outputs": [
        {
          "internalType": "bool",
          "name": "",
          "type": "bool"
        }
      ],
      "stateMutability": "view",
      "type": "function"
    },
    {
      "inputs": [
        {
          "internalType": "address",
          "name": "owner",
          "type": "address"
        },
        {
          "internalType": "address",
          "name": "operator",
          "type": "address"
        }
      ],
      "name": "isApprovedForAll",
      "outputs": [
        {
          "internalType": "bool",
          "name": "",
          "type": "bool"
        }
      ],
      "stateMutability": "view",
      "type": "function"
    },
    {
      "inputs": [
        {
          "internalType": "address",
          "name": "account",
          "type": "address"
        }
      ],
      "name": "isCircuitBreaker",
      "outputs": [
        {
          "internalType": "bool",
          "name": "",
          "type": "bool"
        }
      ],
      "stateMutability": "view",
      "type": "function"
    },
    {
      "inputs": [
        {
          "internalType": "uint256",
          "name": "accountID",
          "type": "uint256"
        }
      ],
      "name": "isLiquidatable",
      "outputs": [
        {
          "internalType": "bool",
          "name": "",
          "type": "bool"
        }
      ],
      "stateMutability": "view",
      "type": "function"
    },
    {
      "inputs": [
        {
          "internalType": "uint256",
          "name": "accountID",
          "type": "uint256"
        }
      ],
      "name": "isMediumAccount",
      "outputs": [
        {
          "internalType": "bool",
          "name": "",
          "type": "bool"
        }
      ],
      "stateMutability": "view",
      "type": "function"
    },
    {
      "inputs": [],
      "name": "isPaused",
      "outputs": [
        {
          "internalType": "bool",
          "name": "",
          "type": "bool"
        }
      ],
      "stateMutability": "view",
      "type": "function"
    },
    {
      "inputs": [
        {
          "internalType": "uint256",
          "name": "accountID",
          "type": "uint256"
        }
      ],
      "name": "isSmallAccount",
      "outputs": [
        {
          "internalType": "bool",
          "name": "",
          "type": "bool"
        }
      ],
      "stateMutability": "view",
      "type": "function"
    },
    {
      "inputs": [],
      "name": "lastIssuanceTime",
      "outputs": [
        {
          "internalType": "uint256",
          "name": "",
          "type": "uint256"
        }
      ],
      "stateMutability": "view",
      "type": "function"
    },
    {
      "inputs": [
        {
          "internalType": "uint256",
          "name": "accountID",
          "type": "uint256"
        },
        {
          "internalType": "uint256",
          "name": "amountLiquidated",
          "type": "uint256"
        }
      ],
      "name": "liquidate",
      "outputs": [
        {
          "internalType": "uint256",
          "name": "",
          "type": "uint256"
        }
      ],
      "stateMutability": "nonpayable",
      "type": "function"
    },
    {
      "inputs": [],
      "name": "liquidationMaxHR",
      "outputs": [
        {
          "internalType": "uint256",
          "name": "",
          "type": "uint256"
        }
      ],
      "stateMutability": "view",
      "type": "function"
    },
    {
      "inputs": [],
      "name": "liquidationPenalty",
      "outputs": [
        {
          "internalType": "uint256",
          "name": "",
          "type": "uint256"
        }
      ],
      "stateMutability": "view",
      "type": "function"
    },
    {
      "inputs": [],
      "name": "liquidationThreshold",
      "outputs": [
        {
          "internalType": "uint256",
          "name": "",
          "type": "uint256"
        }
      ],
      "stateMutability": "view",
      "type": "function"
    },
    {
      "inputs": [
        {
          "internalType": "address",
          "name": "",
          "type": "address"
        }
      ],
      "name": "liquidatorRewards",
      "outputs": [
        {
          "internalType": "uint256",
          "name": "",
          "type": "uint256"
        }
      ],
      "stateMutability": "view",
      "type": "function"
    },
    {
      "inputs": [],
      "name": "name",
      "outputs": [
        {
          "internalType": "string",
          "name": "",
          "type": "string"
        }
      ],
      "stateMutability": "view",
      "type": "function"
    },
    {
      "inputs": [],
      "name": "openAccount",
      "outputs": [
        {
          "internalType": "uint256",
          "name": "",
          "type": "uint256"
        }
      ],
      "stateMutability": "nonpayable",
      "type": "function"
    },
    {
      "inputs": [
        {
          "internalType": "uint256",
          "name": "tokenId",
          "type": "uint256"
        }
      ],
      "name": "ownerOf",
      "outputs": [
        {
          "internalType": "address",
          "name": "",
          "type": "address"
        }
      ],
      "stateMutability": "view",
      "type": "function"
    },
    {
      "inputs": [],
      "name": "pause",
      "outputs": [],
      "stateMutability": "nonpayable",
      "type": "function"
    },
    {
      "inputs": [],
      "name": "paused",
      "outputs": [
        {
          "internalType": "bool",
          "name": "",
          "type": "bool"
        }
      ],
      "stateMutability": "view",
      "type": "function"
    },
    {
      "inputs": [],
      "name": "priceProvider",
      "outputs": [
        {
          "internalType": "contract IPriceProvider",
          "name": "",
          "type": "address"
        }
      ],
      "stateMutability": "view",
      "type": "function"
    },
    {
      "inputs": [
        {
          "internalType": "uint256",
          "name": "accountID",
          "type": "uint256"
        }
      ],
      "name": "principalAmount",
      "outputs": [
        {
          "internalType": "uint256",
          "name": "",
          "type": "uint256"
        }
      ],
      "stateMutability": "view",
      "type": "function"
    },
    {
      "inputs": [
        {
          "internalType": "address",
          "name": "admin",
          "type": "address"
        }
      ],
      "name": "removeAdmininstrator",
      "outputs": [],
      "stateMutability": "nonpayable",
      "type": "function"
    },
    {
      "inputs": [
        {
          "internalType": "address",
          "name": "account",
          "type": "address"
        }
      ],
      "name": "removeCircuitBreaker",
      "outputs": [],
      "stateMutability": "nonpayable",
      "type": "function"
    },
    {
      "inputs": [
        {
          "internalType": "bytes32",
          "name": "role",
          "type": "bytes32"
        },
        {
          "internalType": "address",
          "name": "account",
          "type": "address"
        }
      ],
      "name": "renounceRole",
      "outputs": [],
      "stateMutability": "nonpayable",
      "type": "function"
    },
    {
      "inputs": [
        {
          "internalType": "uint256",
          "name": "accountID",
          "type": "uint256"
        },
        {
          "internalType": "uint256",
          "name": "amount",
          "type": "uint256"
        }
      ],
      "name": "repay",
      "outputs": [],
      "stateMutability": "nonpayable",
      "type": "function"
    },
    {
      "inputs": [
        {
          "internalType": "bytes32",
          "name": "role",
          "type": "bytes32"
        },
        {
          "internalType": "address",
          "name": "account",
          "type": "address"
        }
      ],
      "name": "revokeRole",
      "outputs": [],
      "stateMutability": "nonpayable",
      "type": "function"
    },
    {
      "inputs": [
        {
          "internalType": "address",
          "name": "from",
          "type": "address"
        },
        {
          "internalType": "address",
          "name": "to",
          "type": "address"
        },
        {
          "internalType": "uint256",
          "name": "tokenId",
          "type": "uint256"
        }
      ],
      "name": "safeTransferFrom",
      "outputs": [],
      "stateMutability": "nonpayable",
      "type": "function"
    },
    {
      "inputs": [
        {
          "internalType": "address",
          "name": "from",
          "type": "address"
        },
        {
          "internalType": "address",
          "name": "to",
          "type": "address"
        },
        {
          "internalType": "uint256",
          "name": "tokenId",
          "type": "uint256"
        },
        {
          "internalType": "bytes",
          "name": "data",
          "type": "bytes"
        }
      ],
      "name": "safeTransferFrom",
      "outputs": [],
      "stateMutability": "nonpayable",
      "type": "function"
    },
    {
      "inputs": [
        {
          "internalType": "address",
          "name": "operator",
          "type": "address"
        },
        {
          "internalType": "bool",
          "name": "approved",
          "type": "bool"
        }
      ],
      "name": "setApprovalForAll",
      "outputs": [],
      "stateMutability": "nonpayable",
      "type": "function"
    },
    {
      "inputs": [
        {
          "internalType": "string",
          "name": "baseURI",
          "type": "string"
        }
      ],
      "name": "setBaseURI",
      "outputs": [],
      "stateMutability": "nonpayable",
      "type": "function"
    },
    {
      "inputs": [
        {
          "internalType": "uint256",
          "name": "amount",
          "type": "uint256"
        }
      ],
      "name": "setClosingFee",
      "outputs": [],
      "stateMutability": "nonpayable",
      "type": "function"
    },
    {
      "inputs": [
        {
          "internalType": "uint256",
          "name": "newLimit",
          "type": "uint256"
        }
      ],
      "name": "setDailyIssuanceLimit",
      "outputs": [],
      "stateMutability": "nonpayable",
      "type": "function"
    },
    {
      "inputs": [
        {
          "internalType": "uint256",
          "name": "gracePeriod",
          "type": "uint256"
        }
      ],
      "name": "setInterestGracePeriod",
      "outputs": [],
      "stateMutability": "nonpayable",
      "type": "function"
    },
    {
      "inputs": [
        {
          "internalType": "uint256",
          "name": "_yearlyInterestRate",
          "type": "uint256"
        }
      ],
      "name": "setInterestRate",
      "outputs": [],
      "stateMutability": "nonpayable",
      "type": "function"
    },
    {
      "inputs": [
        {
          "internalType": "uint256",
          "name": "_liquidationPenalty",
          "type": "uint256"
        }
      ],
      "name": "setLiquidationPenalty",
      "outputs": [],
      "stateMutability": "nonpayable",
      "type": "function"
    },
    {
      "inputs": [
        {
          "internalType": "uint256",
          "name": "_liquidationThreshold",
          "type": "uint256"
        }
      ],
      "name": "setLiquidationThreshold",
      "outputs": [],
      "stateMutability": "nonpayable",
      "type": "function"
    },
    {
      "inputs": [
        {
          "internalType": "uint256",
          "name": "_treasury",
          "type": "uint256"
        }
      ],
      "name": "setTreasuryAccountId",
      "outputs": [],
      "stateMutability": "nonpayable",
      "type": "function"
    },
    {
      "inputs": [],
      "name": "smallAccountThreshold",
      "outputs": [
        {
          "internalType": "uint256",
          "name": "",
          "type": "uint256"
        }
      ],
      "stateMutability": "view",
      "type": "function"
    },
    {
      "inputs": [
        {
          "internalType": "bytes4",
          "name": "interfaceId",
          "type": "bytes4"
        }
      ],
      "name": "supportsInterface",
      "outputs": [
        {
          "internalType": "bool",
          "name": "",
          "type": "bool"
        }
      ],
      "stateMutability": "view",
      "type": "function"
    },
    {
      "inputs": [],
      "name": "symbol",
      "outputs": [
        {
          "internalType": "string",
          "name": "",
          "type": "string"
        }
      ],
      "stateMutability": "view",
      "type": "function"
    },
    {
      "inputs": [
        {
          "internalType": "uint256",
          "name": "index",
          "type": "uint256"
        }
      ],
      "name": "tokenByIndex",
      "outputs": [
        {
          "internalType": "uint256",
          "name": "",
          "type": "uint256"
        }
      ],
      "stateMutability": "view",
      "type": "function"
    },
    {
      "inputs": [
        {
          "internalType": "address",
          "name": "owner",
          "type": "address"
        },
        {
          "internalType": "uint256",
          "name": "index",
          "type": "uint256"
        }
      ],
      "name": "tokenOfOwnerByIndex",
      "outputs": [
        {
          "internalType": "uint256",
          "name": "",
          "type": "uint256"
        }
      ],
      "stateMutability": "view",
      "type": "function"
    },
    {
      "inputs": [
        {
          "internalType": "uint256",
          "name": "tokenId",
          "type": "uint256"
        }
      ],
      "name": "tokenURI",
      "outputs": [
        {
          "internalType": "string",
          "name": "",
          "type": "string"
        }
      ],
      "stateMutability": "view",
      "type": "function"
    },
    {
      "inputs": [],
      "name": "totalAccountsCreated",
      "outputs": [
        {
          "internalType": "uint256",
          "name": "",
          "type": "uint256"
        }
      ],
      "stateMutability": "view",
      "type": "function"
    },
    {
      "inputs": [],
      "name": "totalSupply",
      "outputs": [
        {
          "internalType": "uint256",
          "name": "",
          "type": "uint256"
        }
      ],
      "stateMutability": "view",
      "type": "function"
    },
    {
      "inputs": [
        {
          "internalType": "address",
          "name": "from",
          "type": "address"
        },
        {
          "internalType": "address",
          "name": "to",
          "type": "address"
        },
        {
          "internalType": "uint256",
          "name": "tokenId",
          "type": "uint256"
        }
      ],
      "name": "transferFrom",
      "outputs": [],
      "stateMutability": "nonpayable",
      "type": "function"
    },
    {
      "inputs": [
        {
          "internalType": "address",
          "name": "to",
          "type": "address"
        },
        {
          "internalType": "address",
          "name": "token",
          "type": "address"
        },
        {
          "internalType": "uint256",
          "name": "amountToken",
          "type": "uint256"
        }
      ],
      "name": "transferToken",
      "outputs": [],
      "stateMutability": "nonpayable",
      "type": "function"
    },
    {
      "inputs": [],
      "name": "treasuryAccountId",
      "outputs": [
        {
          "internalType": "uint256",
          "name": "",
          "type": "uint256"
        }
      ],
      "stateMutability": "view",
      "type": "function"
    },
    {
      "inputs": [],
      "name": "triggerCircuitBreaker",
      "outputs": [],
      "stateMutability": "nonpayable",
      "type": "function"
    },
    {
      "inputs": [],
      "name": "unpause",
      "outputs": [],
      "stateMutability": "nonpayable",
      "type": "function"
    },
    {
      "inputs": [
        {
          "internalType": "uint256",
          "name": "_smallAccountThreshold",
          "type": "uint256"
        }
      ],
      "name": "updateSmallAccountThreshold",
      "outputs": [],
      "stateMutability": "nonpayable",
      "type": "function"
    },
    {
      "inputs": [
        {
          "internalType": "uint256",
          "name": "accountID",
          "type": "uint256"
        },
        {
          "internalType": "uint256",
          "name": "amount",
          "type": "uint256"
        }
      ],
      "name": "withdraw",
      "outputs": [],
      "stateMutability": "nonpayable",
      "type": "function"
    }
  ],
  "transactionHash": "0xf9159205885ba1a81a3760ed33ef594dc244230e6f55dc4efcec2ef0543e5a6f",
  "args": [
    "0x2932ADCC3b388167fbADE7b6911eBEF225a763DF",
    "1500000000000000000",
    "Collateral Vault",
    "CV",
    "0xA994FaA94aF763Ba248c6AeDCB4f2C038D537db7",
    "0xF2505102e9314Fa00b290c00cA592061A7D5e052",
    "baseuri",
    "115792089237316195423570985008687907853269984665640564039457584007913129639935",
    1100,
    0
  ],
  "numDeployments": 2,
  "solcInputHash": "b7d08686b6787b524cedcc1062de8ef6",
  "bytecode": "0x60806040523480156200001157600080fd5b5060405162005234380380620052348339810160408190526200003491620003d4565b8989898989898989898989898989898989898989898989898989898989898989898989898989898987878582828282828282826001600081905550816001908162000080919062000556565b5060026200008f828262000556565b505050620000a381620001d860201b60201c565b5050505050506012600a620000b9919062000735565b600f55505042601055506001600160a01b038a16620000d757600080fd5b620000e56012600a6200074d565b8911620000f157600080fd5b601655601280546001600160a01b03199081166001600160a01b039b8c1617909155601980548216958b1695909517909455601a805490941694909816939093179091555060189490945550506013556014556000601581905562000157903362000223565b505060006017819055601d805460ff19169055620001819850965033955050620002239350505050565b620001ad7f7e6b58bc1470e1fc07bc9b21e0435be41fdc30ede9591781476a8d169a2654923362000223565b5050505050505050505042602081905550505050505050505050505050505050505050505062000790565b600c620001e6828262000556565b507ffda45751019c07e08a3ebf7d73a4aea1a6c36bee12d87089096012911a756ab5816040516200021891906200075b565b60405180910390a150565b6200022f828262000233565b5050565b6200023f8282620002bd565b6200022f576000828152601c602090815260408083206001600160a01b03851684529091529020805460ff19166001179055620002793390565b6001600160a01b0316816001600160a01b0316837f2f8788117e7eff1d82e926ec794901d17c78024a50270940304540a733656f0d60405160405180910390a45050565b6000828152601c602090815260408083206001600160a01b038516845290915290205460ff165b92915050565b80516001600160a01b03811681146200030257600080fd5b919050565b634e487b7160e01b600052604160045260246000fd5b60005b838110156200033a57818101518382015260200162000320565b50506000910152565b600082601f8301126200035557600080fd5b81516001600160401b038082111562000372576200037262000307565b604051601f8301601f19908116603f011681019082821181831017156200039d576200039d62000307565b81604052838152866020858801011115620003b757600080fd5b620003ca8460208301602089016200031d565b9695505050505050565b6000806000806000806000806000806101408b8d031215620003f557600080fd5b620004008b620002ea565b60208c015160408d0151919b5099506001600160401b03808211156200042557600080fd5b620004338e838f0162000343565b995060608d01519150808211156200044a57600080fd5b620004588e838f0162000343565b98506200046860808e01620002ea565b97506200047860a08e01620002ea565b965060c08d01519150808211156200048f57600080fd5b506200049e8d828e0162000343565b94505060e08b015192506101008b015191506101208b015190509295989b9194979a5092959850565b600181811c90821680620004dc57607f821691505b602082108103620004fd57634e487b7160e01b600052602260045260246000fd5b50919050565b601f8211156200055157600081815260208120601f850160051c810160208610156200052c5750805b601f850160051c820191505b818110156200054d5782815560010162000538565b5050505b505050565b81516001600160401b0381111562000572576200057262000307565b6200058a81620005838454620004c7565b8462000503565b602080601f831160018114620005c25760008415620005a95750858301515b600019600386901b1c1916600185901b1785556200054d565b600085815260208120601f198616915b82811015620005f357888601518255948401946001909101908401620005d2565b5085821015620006125787850151600019600388901b60f8161c191681555b5050505050600190811b01905550565b634e487b7160e01b600052601160045260246000fd5b600181815b80851115620006795781600019048211156200065d576200065d62000622565b808516156200066b57918102915b93841c93908002906200063d565b509250929050565b6000826200069257506001620002e4565b81620006a157506000620002e4565b8160018114620006ba5760028114620006c557620006e5565b6001915050620002e4565b60ff841115620006d957620006d962000622565b50506001821b620002e4565b5060208310610133831016604e8410600b84101617156200070a575081810a620002e4565b62000716838362000638565b80600019048211156200072d576200072d62000622565b029392505050565b60006200074660ff84168362000681565b9392505050565b600062000746838362000681565b60208152600082518060208401526200077c8160408501602087016200031d565b601f01601f19169190910160400192915050565b614a9480620007a06000396000f3fe608060405234801561001057600080fd5b50600436106104f95760003560e01c806370a0823111610299578063b2b282c811610167578063d4cc4d83116100d9578063e54e55ae11610092578063e54e55ae14610a5f578063e985e9c514610a74578063f5537ede14610ab0578063f5f2cd9114610ac3578063f7683bbc14610ad6578063f8d8989814610ade57600080fd5b8063d4cc4d8314610a03578063d547741f14610a16578063d8aed14514610a29578063dbd1838814610a3c578063e2bbb15814610a44578063e425e8b514610a5757600080fd5b8063c0367be51161012b578063c0367be51461099b578063c785e1d6146109ae578063c87b56dd146109b7578063d0b0c816146109ca578063d296d1f1146109dd578063d4a5e743146109f057600080fd5b8063b2b282c81461095c578063b888879e14610964578063b88d4fde14610977578063bb968ec11461098a578063bd30558e1461099357600080fd5b806395d89b411161020b578063a586d15e116101c4578063a586d15e146108db578063a6be85b6146108fb578063a7d4be661461090e578063ae4f5be81461092e578063b187bd2614610941578063b2016bd41461094957600080fd5b806395d89b41146108955780639940d13f1461089d5780639a7720ec146108b05780639abc8320146108b8578063a217fddf146108c0578063a22cb465146108c857600080fd5b8063896394181161025d57806389639418146108395780638b19fc19146108415780638c4096f114610849578063905aa5801461085c57806391d148541461086f57806394c019991461088257600080fd5b806370a08231146107ee57806374f0314f146108015780637e077da51461080b5780638456cb591461081e5780638779654f1461082657600080fd5b8063385113c3116103d65780635087edde116103485780636141053f116103015780636141053f146105d8578063623142451461079d578063632cc441146107a55780636352211e146107b857806366234ffa146107cb5780636d242dff146107e557600080fd5b80635087edde1461074757806355f804b31461075a578063571c082e1461076d5780635c975abb146107765780635f84f3021461078157806360bf03ff1461079457600080fd5b806340d06aa51161039a57806340d06aa5146106e057806342842e0e146106e8578063441a3e70146106fb5780634e613a0a1461070e5780634f558e79146107215780634f6ccce71461073457600080fd5b8063385113c3146106a15780633b0f8550146106b45780633db99177146106bc5780633f4ba83a146106cf5780634031234c146106d757600080fd5b806323b872dd1161046f5780632806a743116104335780632806a74314610645578063292eb75d146106585780632d077501146106605780632f2ff15d146106685780632f745c591461067b57806336568abe1461068e57600080fd5b806323b872dd146105e057806323f5589a146105f3578063248a9ca3146105fc57806324d7806c1461061f578063258b04481461063257600080fd5b806318160ddd116104c157806318160ddd1461058e5780631b6f404e146105a05780631c883e7b146105a95780631ffce6a3146105b2578063211a4443146105c55780632388f376146105d857600080fd5b806301ffc9a7146104fe57806306fdde0314610526578063081812fc1461053b578063095ea7b3146105665780630ecbcdab1461057b575b600080fd5b61051161050c3660046140ed565b610af1565b60405190151581526020015b60405180910390f35b61052e610b02565b60405161051d919061415a565b61054e61054936600461416d565b610b94565b6040516001600160a01b03909116815260200161051d565b6105796105743660046141a2565b610bbb565b005b6105796105893660046141cc565b610cd5565b6009545b60405190815260200161051d565b61059260175481565b61059260165481565b6105796105c036600461416d565b610d6a565b6105116105d336600461416d565b610d9d565b610592601281565b6105796105ee3660046141ee565b610ded565b61059260185481565b61059261060a36600461416d565b6000908152601c602052604090206001015490565b61051161062d36600461422a565b610e1e565b61051161064036600461416d565b610e2a565b61057961065336600461416d565b610e40565b610592610e6c565b610592610e7b565b610579610676366004614245565b610f1d565b6105926106893660046141a2565b610f42565b61057961069c366004614245565b610fd8565b6105116106af36600461422a565b611056565b610592600381565b6105796106ca36600461416d565b611070565b61057961109c565b61059260135481565b6105926110cd565b6105796106f63660046141ee565b61113b565b6105796107093660046141cc565b611156565b61057961071c36600461422a565b6112cf565b61051161072f36600461416d565b611347565b61059261074236600461416d565b611366565b61057961075536600461416d565b6113f9565b6105796107683660046142fd565b611480565b61059260155481565b601d5460ff16610511565b61057961078f36600461416d565b6114b0565b61059260205481565b6105926114e0565b6105926107b336600461416d565b61150d565b61054e6107c636600461416d565b611587565b6107d3601281565b60405160ff909116815260200161051d565b610592601e5481565b6105926107fc36600461422a565b6115e7565b6105926201518081565b61051161081936600461416d565b61166d565b610579611687565b61057961083436600461422a565b6116b6565b610592611721565b610579611780565b61059261085736600461416d565b6117a0565b61059261086a36600461416d565b611880565b61051161087d366004614245565b6119d9565b61059261089036600461416d565b611a04565b61052e611a23565b6105926108ab36600461416d565b611a32565b610592600481565b61052e611a46565b610592600081565b6105796108d6366004614354565b611ad4565b6105926108e936600461422a565b601b6020526000908152604090205481565b61057961090936600461422a565b611adf565b61059261091c36600461416d565b60009081526011602052604090205490565b61057961093c36600461422a565b611b57565b610511611ba0565b60195461054e906001600160a01b031681565b610592611bae565b60125461054e906001600160a01b031681565b61057961098536600461438b565b611c27565b61059260145481565b610592611c5f565b6105796109a936600461416d565b611c73565b610592600b5481565b61052e6109c536600461416d565b611c9f565b6105796109d836600461416d565b611d05565b6105926109eb3660046141cc565b611d31565b6105796109fe36600461416d565b61214d565b610579610a1136600461422a565b612179565b610579610a24366004614245565b6121e4565b610579610a373660046141cc565b612209565b610592612245565b610579610a523660046141cc565b612250565b6105796122e4565b610592600080516020614a3f83398151915281565b610511610a82366004614407565b6001600160a01b03918216600090815260066020908152604080832093909416825291909152205460ff1690565b610579610abe3660046141ee565b6122ec565b610592610ad136600461416d565b612386565b610592612423565b601a5461054e906001600160a01b031681565b6000610afc8261245c565b92915050565b606060018054610b1190614431565b80601f0160208091040260200160405190810160405280929190818152602001828054610b3d90614431565b8015610b8a5780601f10610b5f57610100808354040283529160200191610b8a565b820191906000526020600020905b815481529060010190602001808311610b6d57829003601f168201915b5050505050905090565b6000610b9f82612476565b506000908152600560205260409020546001600160a01b031690565b6000610bc682611587565b9050806001600160a01b0316836001600160a01b031603610c385760405162461bcd60e51b815260206004820152602160248201527f4552433732313a20617070726f76616c20746f2063757272656e74206f776e656044820152603960f91b60648201526084015b60405180910390fd5b336001600160a01b0382161480610c545750610c548133610a82565b610cc65760405162461bcd60e51b815260206004820152603d60248201527f4552433732313a20617070726f76652063616c6c6572206973206e6f7420746f60448201527f6b656e206f776e6572206f7220617070726f76656420666f7220616c6c0000006064820152608401610c2f565b610cd083836124d5565b505050565b6000610cdf611721565b905081811015610d4f5760405162461bcd60e51b815260206004820152603560248201527f4e6f7420656e6f756768206461696c792069737375616e6365206c65667420666044820152741bdc881d1a1a5cc8189bdc9c9bddc8185b5bdd5b9d605a1b6064820152608401610c2f565b610d598282614481565b601f5542602055610cd08383612543565b610d756000336119d9565b610d915760405162461bcd60e51b8152600401610c2f90614494565b610d9a81602255565b50565b6000818152600360205260408120546001600160a01b0316610dd15760405162461bcd60e51b8152600401610c2f906144cb565b610ddd6012600a6145e6565b610de68361150d565b1092915050565b610df73382612555565b610e135760405162461bcd60e51b8152600401610c2f906145f2565b610cd08383836125d3565b6000610afc81836119d9565b6000601554610e3883612744565b111592915050565b610e4b6000336119d9565b610e675760405162461bcd60e51b8152600401610c2f90614494565b601855565b6000610e76612783565b905090565b6000610e856127de565b336000908152601b6020526040902054610ee15760405162461bcd60e51b815260206004820152601c60248201527f446f6e2774206861766520616e797468696e6720666f7220796f752e000000006044820152606401610c2f565b336000818152601b6020526040812080549190556019549091610f0e916001600160a01b03169083612837565b9050610f1a6001600055565b90565b6000828152601c6020526040902060010154610f388161289a565b610cd083836128a4565b6000610f4d836115e7565b8210610faf5760405162461bcd60e51b815260206004820152602b60248201527f455243373231456e756d657261626c653a206f776e657220696e646578206f7560448201526a74206f6620626f756e647360a81b6064820152608401610c2f565b506001600160a01b03919091166000908152600760209081526040808320938352929052205490565b6001600160a01b03811633146110485760405162461bcd60e51b815260206004820152602f60248201527f416363657373436f6e74726f6c3a2063616e206f6e6c792072656e6f756e636560448201526e103937b632b9903337b91039b2b63360891b6064820152608401610c2f565b611052828261292a565b5050565b6000610afc600080516020614a3f833981519152836119d9565b61107b6000336119d9565b6110975760405162461bcd60e51b8152600401610c2f90614494565b601655565b6110a76000336119d9565b6110c35760405162461bcd60e51b8152600401610c2f90614494565b6110cb612991565b565b601a546040516370a0823160e01b81523060048201526000916001600160a01b0316906370a08231906024015b602060405180830381865afa158015611117573d6000803e3d6000fd5b505050506040513d601f19601f82011682018060405250810190610e76919061463f565b610cd083838360405180602001604052806000815250611c27565b60008281526003602052604090205482906001600160a01b031661118c5760405162461bcd60e51b8152600401610c2f906144cb565b3361119682611587565b6001600160a01b0316146111ec5760405162461bcd60e51b815260206004820152601c60248201527f5661756c74206973206e6f74206f776e65642062792063616c6c6572000000006044820152606401610c2f565b6111f46127de565b6111fe83836129e3565b5061120883612744565b156112755761121683610d9d565b156112755760405162461bcd60e51b815260206004820152602960248201527f5769746864726177616c20776f756c6420707574206865616c746820726174696044820152686f2062656c6f77203160b81b6064820152608401610c2f565b60195461128c906001600160a01b03163384612837565b60408051848152602081018490527f2399e8aed1977410745a5211d8226a3a7d9278f50a8a197c5ec6e285bb437f0b910160405180910390a1610cd06001600055565b6112da6000336119d9565b6112f65760405162461bcd60e51b8152600401610c2f90614494565b61130e600080516020614a3f83398151915282610f1d565b60405133906001600160a01b038316907faa0b9330c36362176712e4ffc1ee0f1a14d0aff49a3d3eb31b3c9df990ffcfa190600090a350565b6000818152600360205260408120546001600160a01b03161515610afc565b600061137160095490565b82106113d45760405162461bcd60e51b815260206004820152602c60248201527f455243373231456e756d657261626c653a20676c6f62616c20696e646578206f60448201526b7574206f6620626f756e647360a01b6064820152608401610c2f565b600982815481106113e7576113e7614658565b90600052602060002001549050919050565b6114046000336119d9565b6114205760405162461bcd60e51b8152600401610c2f90614494565b6000818152600360205260409020546001600160a01b031661147b5760405162461bcd60e51b815260206004820152601460248201527315985d5b1d08191bd95cc81b9bdd08195e1a5cdd60621b6044820152606401610c2f565b601755565b61148b6000336119d9565b6114a75760405162461bcd60e51b8152600401610c2f90614494565b610d9a81612a76565b6114bb6000336119d9565b6114d75760405162461bcd60e51b8152600401610c2f90614494565b610d9a81612abd565b60006114ee6012600a61466e565b6114f6612ac6565b600f54611503919061467d565b610e769190614694565b60008061151c61085784612744565b905080600003611530575060001992915050565b8060135461153e919061467d565b6115496012806146b6565b61155490600a6145e6565b6000858152600d602052604090205461156c90612386565b611576919061467d565b6115809190614694565b9392505050565b6000818152600360205260408120546001600160a01b031680610afc5760405162461bcd60e51b8152602060048201526018602482015277115490cdcc8c4e881a5b9d985b1a59081d1bdad95b88125160421b6044820152606401610c2f565b60006001600160a01b0382166116515760405162461bcd60e51b815260206004820152602960248201527f4552433732313a2061646472657373207a65726f206973206e6f7420612076616044820152683634b21037bbb732b960b91b6064820152608401610c2f565b506001600160a01b031660009081526004602052604090205490565b6000601554600261167e919061467d565b610e3883612744565b6116926000336119d9565b6116ae5760405162461bcd60e51b8152600401610c2f90614494565b6110cb612af3565b6116c16000336119d9565b6116dd5760405162461bcd60e51b8152600401610c2f90614494565b6116e86000826121e4565b60405133906001600160a01b038316907f427e024ace7a7942bc6f60715750c0c5f36943fb5b21734a3d4bedddefd2f84e90600090a350565b600080602054426117329190614481565b9050600062015180601e546117479190614694565b90506000611755838361467d565b9050600081601f5461176791906146b6565b9050601e548111156117785750601e545b949350505050565b600080516020614a3f8339815191526117988161289a565b610d9a612af3565b6000806117ab611bae565b9050806000036117f35760405162461bcd60e51b81526020600482015260136024820152726f7261636c65206973206e6f7420726561647960681b6044820152606401610c2f565b601a546040805163313ce56760e01b815290516000926001600160a01b03169163313ce5679160048083019260209291908290030181865afa15801561183d573d6000803e3d6000fd5b505050506040513d601f19601f8201168201806040525081019061186191906146c9565b61186c90600a61466e565b611876838661467d565b6117789190614694565b600061188a612423565b601a60009054906101000a90046001600160a01b03166001600160a01b031663313ce5676040518163ffffffff1660e01b8152600401602060405180830381865afa1580156118dd573d6000803e3d6000fd5b505050506040513d601f19601f8201168201806040525081019061190191906146c9565b61190f9060ff1660036146b6565b61191a90600a6145e6565b611924919061467d565b61192c611bae565b601854601960009054906101000a90046001600160a01b03166001600160a01b031663313ce5676040518163ffffffff1660e01b8152600401602060405180830381865afa158015611982573d6000803e3d6000fd5b505050506040513d601f19601f820116820180604052508101906119a691906146c9565b6119b190600a61466e565b6119bb908661467d565b6119c5919061467d565b6119cf919061467d565b610afc9190614694565b6000918252601c602090815260408084206001600160a01b0393909316845291905290205460ff1690565b6000611a126012600a61466e565b611a1a612ac6565b6119c584612744565b606060028054610b1190614431565b6000818152600d6020526040812054610afc565b600c8054611a5390614431565b80601f0160208091040260200160405190810160405280929190818152602001828054611a7f90614431565b8015611acc5780601f10611aa157610100808354040283529160200191611acc565b820191906000526020600020905b815481529060010190602001808311611aaf57829003601f168201915b505050505081565b611052338383612b30565b611aea6000336119d9565b611b065760405162461bcd60e51b8152600401610c2f90614494565b611b1e600080516020614a3f833981519152826121e4565b60405133906001600160a01b038316907f2b1b5e93f3e82b5dbf28384d5cb3966f2cf776ec27dc42f1b193aae81958a5e790600090a350565b611b626000336119d9565b611b7e5760405162461bcd60e51b8152600401610c2f90614494565b601280546001600160a01b0319166001600160a01b0392909216919091179055565b6000610e76601d5460ff1690565b60125460408051632e0f262560e01b815290516000926001600160a01b031691632e0f26259160048083019260209291908290030181865afa158015611bf8573d6000803e3d6000fd5b505050506040513d601f19601f82011682018060405250810190611c1c91906146c9565b610e7690600a61466e565b611c313383612555565b611c4d5760405162461bcd60e51b8152600401610c2f906145f2565b611c5984848484612bfe565b50505050565b60006021546301e13380610e76919061467d565b611c7e6000336119d9565b611c9a5760405162461bcd60e51b8152600401610c2f90614494565b601e55565b6060611caa82612476565b6000611cb4612c31565b90506000815111611cd45760405180602001604052806000815250611580565b80611cde84612cc7565b604051602001611cef9291906146ec565b6040516020818303038152906040529392505050565b611d106000336119d9565b611d2c5760405162461bcd60e51b8152600401610c2f90614494565b601355565b6000611d3b612d5a565b611d4483610d9d565b611da95760405162461bcd60e51b815260206004820152603060248201527f5661756c74206973206e6f742062656c6f77206d696e696d756d20636f6c6c6160448201526f746572616c2070657263656e7461676560801b6064820152608401610c2f565b6000611db484612744565b905080831115611e2c5760405162461bcd60e51b815260206004820152603b60248201527f6c697175696461746174655661756c743a20616d6f756e74206c69717569646160448201527f746564206973206774207468616e20646562742062616c616e636500000000006064820152608401610c2f565b601a546040516370a0823160e01b815233600482015284916001600160a01b0316906370a0823190602401602060405180830381865afa158015611e74573d6000803e3d6000fd5b505050506040513d601f19601f82011682018060405250810190611e98919061463f565b1015611f005760405162461bcd60e51b815260206004820152603160248201527f546f6b656e2062616c616e636520746f6f206c6f7720746f20706179206f6666604482015270081bdd5d1cdd185b991a5b99c81919589d607a1b6064820152608401610c2f565b601a54611f18906001600160a01b0316333086612d62565b6000611f2384611880565b6015549091508083111590600090611f3c90600261467d565b84111590506000611f4d8888612d9a565b90506000611f5b8989612ed0565b9050611f6789866129e3565b5081158415611fd85780611fd35760405162461bcd60e51b815260206004820152602d60248201527f536d616c6c206163636f756e7473206861766520746f206265206c697175696460448201526c6174656420656e746972656c7960981b6064820152608401610c2f565b6120ad565b83612048576000601454611feb8c61150d565b11159050806120465760405162461bcd60e51b815260206004820152602160248201527f746f6f206d75636820636f6c6c61746572616c206973206c69717569646174656044820152601960fa1b6064820152608401610c2f565b505b8080612055575060155483115b6120ad5760405162461bcd60e51b815260206004820152602360248201527f43616e6e6f74206c65617665206120736d616c6c20616d6f756e74206f66206460448201526219589d60ea1b6064820152608401610c2f565b336000908152601b60205260409020546120c89087906146b6565b336000908152601b60205260409020557f2d2bf3ea7c506154e3578f11f3ba8d321772bf6aeb9f70cd52d8b49e92d403608a61210381611587565b604080519283526001600160a01b0390911660208301523390820152606081018b90526080810188905260a0810184905260c00160405180910390a1509398975050505050505050565b6121586000336119d9565b6121745760405162461bcd60e51b8152600401610c2f90614494565b601555565b6121846000336119d9565b6121a05760405162461bcd60e51b8152600401610c2f90614494565b6121ab600082610f1d565b60405133906001600160a01b038316907fa2f792d5cab45450daed47916f25d9bd3443d275c51ecbccfbeb727a3b4eda0e90600090a350565b6000828152601c60205260409020600101546121ff8161289a565b610cd0838361292a565b6000612213611721565b9050600061222183836146b6565b9050601e54811161223457601f54612238565b601e545b601f55611c598484612efd565b6000610e7660225490565b6000828152600360205260409020546001600160a01b03166122845760405162461bcd60e51b8152600401610c2f906144cb565b60195461229c906001600160a01b0316333084612d62565b6122a6828261305f565b5060408051838152602081018390527f1d6754727766d56b1fac49ac85a13585c6caab122a19c994e569d16077d462f2910160405180910390a15050565b6110cb612d5a565b6122f76000336119d9565b6123135760405162461bcd60e51b8152600401610c2f90614494565b60405163a9059cbb60e01b81526001600160a01b0384811660048301526024820183905283169063a9059cbb906044016020604051808303816000875af1158015612362573d6000803e3d6000fd5b505050506040513d601f19601f82011682018060405250810190611c59919061471b565b600080612391612423565b9050806000036123d95760405162461bcd60e51b81526020600482015260136024820152726f7261636c65206973206e6f7420726561647960681b6044820152606401610c2f565b6019546040805163313ce56760e01b815290516000926001600160a01b03169163313ce5679160048083019260209291908290030181865afa15801561183d573d6000803e3d6000fd5b60125460195460405163078ebe8960e31b81526001600160a01b0391821660048201526000929190911690633c75f448906024016110fa565b60006124678261307b565b80610afc5750610afc826130a0565b6000818152600360205260409020546001600160a01b0316610d9a5760405162461bcd60e51b8152602060048201526018602482015277115490cdcc8c4e881a5b9d985b1a59081d1bdad95b88125160421b6044820152606401610c2f565b600081815260056020526040902080546001600160a01b0319166001600160a01b038416908117909155819061250a82611587565b6001600160a01b03167f8c5be1e5ebec7d5bd14f71427d1e84f3dd0314c0f7b2291e5b200ac8c7c3b92560405160405180910390a45050565b61254b6130c5565b611052828261310b565b60008061256183611587565b9050806001600160a01b0316846001600160a01b031614806125a857506001600160a01b0380821660009081526006602090815260408083209388168352929052205460ff165b806117785750836001600160a01b03166125c184610b94565b6001600160a01b031614949350505050565b826001600160a01b03166125e682611587565b6001600160a01b03161461260c5760405162461bcd60e51b8152600401610c2f90614738565b6001600160a01b03821661266e5760405162461bcd60e51b8152602060048201526024808201527f4552433732313a207472616e7366657220746f20746865207a65726f206164646044820152637265737360e01b6064820152608401610c2f565b61267b8383836001613334565b826001600160a01b031661268e82611587565b6001600160a01b0316146126b45760405162461bcd60e51b8152600401610c2f90614738565b600081815260056020908152604080832080546001600160a01b03199081169091556001600160a01b0387811680865260048552838620805460001901905590871680865283862080546001019055868652600390945282852080549092168417909155905184937fddf252ad1be2c89b69c2b068fc378daa952ba7f163c4a11628f55a4df523b3ef91a4505050565b600081815260116020526040812054810361276157506000919050565b600082815260116020908152604080832054600f54600e9093529220546119c5565b600b546000906127948160016146b6565b600b556127a13382613468565b604080518281523360208201527f487f75407abee1a719a204e683a93f0583efee10816d2651b112f8be571f7d32910160405180910390a1919050565b6002600054036128305760405162461bcd60e51b815260206004820152601f60248201527f5265656e7472616e637947756172643a207265656e7472616e742063616c6c006044820152606401610c2f565b6002600055565b6040516001600160a01b038316602482015260448101829052610cd090849063a9059cbb60e01b906064015b60408051601f198184030181529190526020810180516001600160e01b03166001600160e01b031990931692909217909152613601565b610d9a81336136d3565b6128ae82826119d9565b611052576000828152601c602090815260408083206001600160a01b03851684529091529020805460ff191660011790556128e63390565b6001600160a01b0316816001600160a01b0316837f2f8788117e7eff1d82e926ec794901d17c78024a50270940304540a733656f0d60405160405180910390a45050565b61293482826119d9565b15611052576000828152601c602090815260408083206001600160a01b0385168085529252808320805460ff1916905551339285917ff6391f5c32d9c69d2a47ea670b442974b53935d1edc7fd64eb21e047a839171b9190a45050565b61299961372c565b601d805460ff191690557f5db9ee0a495bf2e6ff9c91a7834c1ba4fdd244a5e8aa4e537bd38aeae4b073aa335b6040516001600160a01b03909116815260200160405180910390a1565b6000828152600d602052604081205482811015612a525760405162461bcd60e51b815260206004820152602760248201527f4163636f756e7420646f6573206e6f74206861766520656e6f75676820636f6c6044820152661b185d195c985b60ca1b6064820152608401610c2f565b612a5c8382614481565b6000858152600d6020526040902081905590509392505050565b600c612a8282826147cb565b507ffda45751019c07e08a3ebf7d73a4aea1a6c36bee12d87089096012911a756ab581604051612ab2919061415a565b60405180910390a150565b610d9a81613775565b6000612ad46012600a61466e565b602154612adf613791565b612ae9919061467d565b610e7691906146b6565b612afb6130c5565b601d805460ff191660011790557f62e78cea01bee320cd4e420270b5ea74000d11b0c9f74754ebdbfc544b05a2586129c63390565b816001600160a01b0316836001600160a01b031603612b915760405162461bcd60e51b815260206004820152601960248201527f4552433732313a20617070726f766520746f2063616c6c6572000000000000006044820152606401610c2f565b6001600160a01b03838116600081815260066020908152604080832094871680845294825291829020805460ff191686151590811790915591519182527f17307eab39ab6107e8899845ad3d59bd9653f200f220920489ca2b5937696c31910160405180910390a3505050565b612c098484846125d3565b612c15848484846137a1565b611c595760405162461bcd60e51b8152600401610c2f9061488b565b60606000600c8054612c4290614431565b80601f0160208091040260200160405190810160405280929190818152602001828054612c6e90614431565b8015612cbb5780601f10612c9057610100808354040283529160200191612cbb565b820191906000526020600020905b815481529060010190602001808311612c9e57829003601f168201915b50939695505050505050565b60606000612cd4836138a2565b600101905060008167ffffffffffffffff811115612cf457612cf4614271565b6040519080825280601f01601f191660200182016040528015612d1e576020820181803683370190505b5090508181016020015b600019016f181899199a1a9b1b9c1cb0b131b232b360811b600a86061a8153600a8504945084612d2857509392505050565b6110cb61397a565b6040516001600160a01b0380851660248301528316604482015260648101829052611c599085906323b872dd60e01b90608401612863565b600080612da684612744565b90506000612db3826139ce565b60008681526011602052604081205491925090612dd26012600a61466e565b600f54612ddf919061467d565b612de99190614694565b90506000818311612dfa5782612dfc565b815b9050600084612e0d6012600a61466e565b612e17848861467d565b612e219190614694565b612e2b9190614481565b905086851015612e885760405162461bcd60e51b815260206004820152602260248201527f5072696e636970616c20726570616964206973206774206f75747374616e64696044820152616e6760f01b6064820152608401610c2f565b612e928786614481565b9450808511612ea057600094505b6000888152600e602052604090208590555050600f54600087815260116020526040902055509091505092915050565b600080612edc836139d9565b9050612ee884826129e3565b50612ef56017548261305f565b509392505050565b601a546040516370a0823160e01b815233600482015282916001600160a01b0316906370a0823190602401602060405180830381865afa158015612f45573d6000803e3d6000fd5b505050506040513d601f19601f82011682018060405250810190612f69919061463f565b1015612faf5760405162461bcd60e51b8152602060048201526015602482015274546f6b656e2062616c616e636520746f6f206c6f7760581b6044820152606401610c2f565b612fb7612d5a565b6000612fc38383612d9a565b601a54909150612fde906001600160a01b0316333085612d62565b6000612fea8484612ed0565b905060155482101580612ffb575081155b6130175760405162461bcd60e51b8152600401610c2f906148dd565b60408051858152602081018590529081018290527f149b50d736e6bae3731794c3f60356f28d0a90d89a576fceedcb963d88be12bc906060015b60405180910390a150505050565b6000828152600d60205260408120548190612a5c9084906146b6565b60006001600160e01b0319821663780e9d6360e01b1480610afc5750610afc82613b27565b60006001600160e01b03198216637965db0b60e01b1480610afc5750610afc8261307b565b601d5460ff16156110cb5760405162461bcd60e51b815260206004820152601060248201526f14185d5cd8589b194e881c185d5cd95960821b6044820152606401610c2f565b60008281526003602052604090205482906001600160a01b03166131415760405162461bcd60e51b8152600401610c2f906144cb565b3361314b82611587565b6001600160a01b0316146131a15760405162461bcd60e51b815260206004820152601c60248201527f5661756c74206973206e6f74206f776e65642062792063616c6c6572000000006044820152606401610c2f565b600082116131f15760405162461bcd60e51b815260206004820152601b60248201527f4d75737420626f72726f77206e6f6e2d7a65726f20616d6f756e7400000000006044820152606401610c2f565b6131f96110cd565b8211156132595760405162461bcd60e51b815260206004820152602860248201527f626f72726f773a2043616e6e6f74206265206f76657220617661696c61626c656044820152671039bab838363c9760c11b6064820152608401610c2f565b613261612d5a565b600061326d8484613b77565b905061327884610d9d565b156132c55760405162461bcd60e51b815260206004820152601e60248201527f626f72726f773a204865616c746820726174696f2062656c6f772031303000006044820152606401610c2f565b6015548110156132e75760405162461bcd60e51b8152600401610c2f906148dd565b601a546132fe906001600160a01b03163385612837565b60408051858152602081018590527fdaaa1fa9735977ef2d891e297d81a8466fecac5554ec7937408fe70c696d1a399101613051565b60018111156133a35760405162461bcd60e51b815260206004820152603560248201527f455243373231456e756d657261626c653a20636f6e7365637574697665207472604482015274185b9cd9995c9cc81b9bdd081cdd5c1c1bdc9d1959605a1b6064820152608401610c2f565b816001600160a01b0385166133ff576133fa81600980546000838152600a60205260408120829055600182018355919091527f6e1540171b6c0c960b71a7020d9f60077f6af931a8bbf590da0223dacf75c7af0155565b613422565b836001600160a01b0316856001600160a01b031614613422576134228582613bbb565b6001600160a01b03841661343e5761343981613c58565b613461565b846001600160a01b0316846001600160a01b031614613461576134618482613d07565b5050505050565b6001600160a01b0382166134be5760405162461bcd60e51b815260206004820181905260248201527f4552433732313a206d696e7420746f20746865207a65726f20616464726573736044820152606401610c2f565b6000818152600360205260409020546001600160a01b0316156135235760405162461bcd60e51b815260206004820152601c60248201527f4552433732313a20746f6b656e20616c7265616479206d696e746564000000006044820152606401610c2f565b613531600083836001613334565b6000818152600360205260409020546001600160a01b0316156135965760405162461bcd60e51b815260206004820152601c60248201527f4552433732313a20746f6b656e20616c7265616479206d696e746564000000006044820152606401610c2f565b6001600160a01b038216600081815260046020908152604080832080546001019055848352600390915280822080546001600160a01b0319168417905551839291907fddf252ad1be2c89b69c2b068fc378daa952ba7f163c4a11628f55a4df523b3ef908290a45050565b6000613656826040518060400160405280602081526020017f5361666545524332303a206c6f772d6c6576656c2063616c6c206661696c6564815250856001600160a01b0316613d4b9092919063ffffffff16565b805190915015610cd05780806020019051810190613674919061471b565b610cd05760405162461bcd60e51b815260206004820152602a60248201527f5361666545524332303a204552433230206f7065726174696f6e20646964206e6044820152691bdd081cdd58d8d9595960b21b6064820152608401610c2f565b6136dd82826119d9565b611052576136ea81613d5a565b6136f5836020613d6c565b604051602001613706929190614927565b60408051601f198184030181529082905262461bcd60e51b8252610c2f9160040161415a565b601d5460ff166110cb5760405162461bcd60e51b815260206004820152601460248201527314185d5cd8589b194e881b9bdd081c185d5cd95960621b6044820152606401610c2f565b61377d612d5a565b61378b6301e1338082614694565b60215550565b600060105442610e769190614481565b60006001600160a01b0384163b1561389757604051630a85bd0160e11b81526001600160a01b0385169063150b7a02906137e590339089908890889060040161499c565b6020604051808303816000875af1925050508015613820575060408051601f3d908101601f1916820190925261381d918101906149d8565b60015b61387d573d80801561384e576040519150601f19603f3d011682016040523d82523d6000602084013e613853565b606091505b5080516000036138755760405162461bcd60e51b8152600401610c2f9061488b565b805181602001fd5b6001600160e01b031916630a85bd0160e11b149050611778565b506001949350505050565b60008072184f03e93ff9f4daa797ed6e38ed64bf6a1f0160401b83106138e15772184f03e93ff9f4daa797ed6e38ed64bf6a1f0160401b830492506040015b6d04ee2d6d415b85acef8100000000831061390d576d04ee2d6d415b85acef8100000000830492506020015b662386f26fc10000831061392b57662386f26fc10000830492506010015b6305f5e1008310613943576305f5e100830492506008015b612710831061395757612710830492506004015b60648310613969576064830492506002015b600a8310610afc5760010192915050565b6000613984612ac6565b905061398f81613f08565b7f3d8708181c6452c5711a2b4c6ed3f12149f6ea35f78549aba00a89d041e766ca816139b9613791565b60408051928352602083019190915201612ab2565b6000610afc82613f36565b6000806139e4612423565b905060006139f0611bae565b905081601a60009054906101000a90046001600160a01b03166001600160a01b031663313ce5676040518163ffffffff1660e01b8152600401602060405180830381865afa158015613a46573d6000803e3d6000fd5b505050506040513d601f19601f82011682018060405250810190613a6a91906146c9565b613a789060ff1660046146b6565b613a8390600a6145e6565b613a8d919061467d565b6016546019546040805163313ce56760e01b815290518593926001600160a01b03169163313ce5679160048083019260209291908290030181865afa158015613ada573d6000803e3d6000fd5b505050506040513d601f19601f82011682018060405250810190613afe91906146c9565b613b0990600a61466e565b613b13908861467d565b613b1d919061467d565b611876919061467d565b60006001600160e01b031982166380ac58cd60e01b1480613b5857506001600160e01b03198216635b5e139f60e01b145b80610afc57506301ffc9a760e01b6001600160e01b0319831614610afc565b60008082613b8485612744565b613b8e91906146b6565b6000858152600e602052604090208190559050600f54600085815260116020526040902055905092915050565b60006001613bc8846115e7565b613bd29190614481565b600083815260086020526040902054909150808214613c25576001600160a01b03841660009081526007602090815260408083208584528252808320548484528184208190558352600890915290208190555b5060009182526008602090815260408084208490556001600160a01b039094168352600781528383209183525290812055565b600954600090613c6a90600190614481565b6000838152600a602052604081205460098054939450909284908110613c9257613c92614658565b906000526020600020015490508060098381548110613cb357613cb3614658565b6000918252602080832090910192909255828152600a90915260408082208490558582528120556009805480613ceb57613ceb6149f5565b6001900381819060005260206000200160009055905550505050565b6000613d12836115e7565b6001600160a01b039093166000908152600760209081526040808320868452825280832085905593825260089052919091209190915550565b60606117788484600085613f5e565b6060610afc6001600160a01b03831660145b60606000613d7b83600261467d565b613d869060026146b6565b67ffffffffffffffff811115613d9e57613d9e614271565b6040519080825280601f01601f191660200182016040528015613dc8576020820181803683370190505b509050600360fc1b81600081518110613de357613de3614658565b60200101906001600160f81b031916908160001a905350600f60fb1b81600181518110613e1257613e12614658565b60200101906001600160f81b031916908160001a9053506000613e3684600261467d565b613e419060016146b6565b90505b6001811115613eb9576f181899199a1a9b1b9c1cb0b131b232b360811b85600f1660108110613e7557613e75614658565b1a60f81b828281518110613e8b57613e8b614658565b60200101906001600160f81b031916908160001a90535060049490941c93613eb281614a0b565b9050613e44565b5083156115805760405162461bcd60e51b815260206004820181905260248201527f537472696e67733a20686578206c656e67746820696e73756666696369656e746044820152606401610c2f565b613f146012600a61466e565b81600f54613f22919061467d565b613f2c9190614694565b600f555042601055565b6000613f446012600a61466e565b602254602154613f54919061467d565b610afc91906146b6565b606082471015613fbf5760405162461bcd60e51b815260206004820152602660248201527f416464726573733a20696e73756666696369656e742062616c616e636520666f6044820152651c8818d85b1b60d21b6064820152608401610c2f565b600080866001600160a01b03168587604051613fdb9190614a22565b60006040518083038185875af1925050503d8060008114614018576040519150601f19603f3d011682016040523d82523d6000602084013e61401d565b606091505b509150915061402e87838387614039565b979650505050505050565b606083156140a85782516000036140a1576001600160a01b0385163b6140a15760405162461bcd60e51b815260206004820152601d60248201527f416464726573733a2063616c6c20746f206e6f6e2d636f6e74726163740000006044820152606401610c2f565b5081611778565b61177883838151156140bd5781518083602001fd5b8060405162461bcd60e51b8152600401610c2f919061415a565b6001600160e01b031981168114610d9a57600080fd5b6000602082840312156140ff57600080fd5b8135611580816140d7565b60005b8381101561412557818101518382015260200161410d565b50506000910152565b6000815180845261414681602086016020860161410a565b601f01601f19169290920160200192915050565b602081526000611580602083018461412e565b60006020828403121561417f57600080fd5b5035919050565b80356001600160a01b038116811461419d57600080fd5b919050565b600080604083850312156141b557600080fd5b6141be83614186565b946020939093013593505050565b600080604083850312156141df57600080fd5b50508035926020909101359150565b60008060006060848603121561420357600080fd5b61420c84614186565b925061421a60208501614186565b9150604084013590509250925092565b60006020828403121561423c57600080fd5b61158082614186565b6000806040838503121561425857600080fd5b8235915061426860208401614186565b90509250929050565b634e487b7160e01b600052604160045260246000fd5b600067ffffffffffffffff808411156142a2576142a2614271565b604051601f8501601f19908116603f011681019082821181831017156142ca576142ca614271565b816040528093508581528686860111156142e357600080fd5b858560208301376000602087830101525050509392505050565b60006020828403121561430f57600080fd5b813567ffffffffffffffff81111561432657600080fd5b8201601f8101841361433757600080fd5b61177884823560208401614287565b8015158114610d9a57600080fd5b6000806040838503121561436757600080fd5b61437083614186565b9150602083013561438081614346565b809150509250929050565b600080600080608085870312156143a157600080fd5b6143aa85614186565b93506143b860208601614186565b925060408501359150606085013567ffffffffffffffff8111156143db57600080fd5b8501601f810187136143ec57600080fd5b6143fb87823560208401614287565b91505092959194509250565b6000806040838503121561441a57600080fd5b61442383614186565b915061426860208401614186565b600181811c9082168061444557607f821691505b60208210810361446557634e487b7160e01b600052602260045260246000fd5b50919050565b634e487b7160e01b600052601160045260246000fd5b81810381811115610afc57610afc61446b565b6020808252601e908201527f43616c6c6572206973206e6f7420616e2061646d696e6973747261746f720000604082015260600190565b60208082526016908201527f4163636f756e7420646f6573206e6f7420657869737400000000000000000000604082015260600190565b600181815b8085111561453d5781600019048211156145235761452361446b565b8085161561453057918102915b93841c9390800290614507565b509250929050565b60008261455457506001610afc565b8161456157506000610afc565b816001811461457757600281146145815761459d565b6001915050610afc565b60ff8411156145925761459261446b565b50506001821b610afc565b5060208310610133831016604e8410600b84101617156145c0575081810a610afc565b6145ca8383614502565b80600019048211156145de576145de61446b565b029392505050565b60006115808383614545565b6020808252602d908201527f4552433732313a2063616c6c6572206973206e6f7420746f6b656e206f776e6560408201526c1c881bdc88185c1c1c9bdd9959609a1b606082015260800190565b60006020828403121561465157600080fd5b5051919050565b634e487b7160e01b600052603260045260246000fd5b600061158060ff841683614545565b8082028115828204841417610afc57610afc61446b565b6000826146b157634e487b7160e01b600052601260045260246000fd5b500490565b80820180821115610afc57610afc61446b565b6000602082840312156146db57600080fd5b815160ff8116811461158057600080fd5b600083516146fe81846020880161410a565b83519083019061471281836020880161410a565b01949350505050565b60006020828403121561472d57600080fd5b815161158081614346565b60208082526025908201527f4552433732313a207472616e736665722066726f6d20696e636f72726563742060408201526437bbb732b960d91b606082015260800190565b601f821115610cd057600081815260208120601f850160051c810160208610156147a45750805b601f850160051c820191505b818110156147c3578281556001016147b0565b505050505050565b815167ffffffffffffffff8111156147e5576147e5614271565b6147f9816147f38454614431565b8461477d565b602080601f83116001811461482e57600084156148165750858301515b600019600386901b1c1916600185901b1785556147c3565b600085815260208120601f198616915b8281101561485d5788860151825594840194600190910190840161483e565b508582101561487b5787850151600019600388901b60f8161c191681555b5050505050600190811b01905550565b60208082526032908201527f4552433732313a207472616e7366657220746f206e6f6e20455243373231526560408201527131b2b4bb32b91034b6b83632b6b2b73a32b960711b606082015260800190565b6020808252602a908201527f4f75747374616e64696e67207072696e636970616c20616d6f756e74206973206040820152693a37b79039b6b0b6361760b11b606082015260800190565b7f416363657373436f6e74726f6c3a206163636f756e742000000000000000000081526000835161495f81601785016020880161410a565b7001034b99036b4b9b9b4b733903937b6329607d1b601791840191820152835161499081602884016020880161410a565b01602801949350505050565b60006001600160a01b038087168352808616602084015250836040830152608060608301526149ce608083018461412e565b9695505050505050565b6000602082840312156149ea57600080fd5b8151611580816140d7565b634e487b7160e01b600052603160045260246000fd5b600081614a1a57614a1a61446b565b506000190190565b60008251614a3481846020870161410a565b919091019291505056fe7e6b58bc1470e1fc07bc9b21e0435be41fdc30ede9591781476a8d169a265492a264697066735822122026652db86372e9b3a77622b6e3963f6d53b9c6a6d39ef21db2e675e3a3b8b5b864736f6c63430008110033",
  "devdoc": {
    "kind": "dev",
    "methods": {
      "approve(address,uint256)": {
        "details": "See {IERC721-approve}."
      },
      "balanceOf(address)": {
        "details": "See {IERC721-balanceOf}."
      },
      "borrow(uint256,uint256)": {
        "details": "checks to make sure there is no bad debt",
        "params": {
          "accountID": "is the vault's ID",
          "amount": "is the amount to borrow"
        }
      },
      "calculateCollateralValue(uint256)": {
        "details": "Returns the same amount of decimals as the oracle",
        "params": {
          "_collateralAmount": "The amount of collateral to get valued"
        },
        "returns": {
          "_0": "collateralValue Collateral value"
        }
      },
      "calculatePrincipalValue(uint256)": {
        "details": "Returns the same amount of decimals as the oracle",
        "params": {
          "_principalAmount": "The amount of principal to get valued"
        },
        "returns": {
          "_0": "principalValue principal value"
        }
      },
      "deposit(uint256,uint256)": {
        "params": {
          "accountID": "is the vault's id",
          "amount": "is the amount to deposit"
        }
      },
      "exists(uint256)": {
        "returns": {
          "_0": "exists true if it exists false otherwise"
        }
      },
      "getApproved(uint256)": {
        "details": "See {IERC721-getApproved}."
      },
      "getAvailableDebt()": {
        "returns": {
          "_0": "maxDebt"
        }
      },
      "getCollateralPrice()": {
        "returns": {
          "_0": "ethPrice"
        }
      },
      "getRoleAdmin(bytes32)": {
        "details": "Returns the admin role that controls `role`. See {grantRole} and {revokeRole}. To change a role's admin, use {_setRoleAdmin}."
      },
      "grantRole(bytes32,address)": {
        "details": "Grants `role` to `account`. If `account` had not been already granted `role`, emits a {RoleGranted} event. Requirements: - the caller must have ``role``'s admin role. May emit a {RoleGranted} event."
      },
      "hasRole(bytes32,address)": {
        "details": "Returns `true` if `account` has been granted `role`."
      },
      "isApprovedForAll(address,address)": {
        "details": "See {IERC721-isApprovedForAll}."
      },
      "isLiquidatable(uint256)": {
        "params": {
          "accountID": "is the vault's ID"
        },
        "returns": {
          "_0": "isLiquidatable which is a boolean"
        }
      },
      "liquidate(uint256,uint256)": {
        "params": {
          "accountID": "is the vault's ID",
          "amountLiquidated": "amount of debt token liquidated"
        }
      },
      "name()": {
        "details": "See {IERC721Metadata-name}."
      },
      "openAccount()": {
        "returns": {
          "_0": "id is the new vault's id"
        }
      },
      "ownerOf(uint256)": {
        "details": "See {IERC721-ownerOf}."
      },
      "paused()": {
        "details": "Returns true if the contract is paused, and false otherwise."
      },
      "renounceRole(bytes32,address)": {
        "details": "Revokes `role` from the calling account. Roles are often managed via {grantRole} and {revokeRole}: this function's purpose is to provide a mechanism for accounts to lose their privileges if they are compromised (such as when a trusted device is misplaced). If the calling account had been revoked `role`, emits a {RoleRevoked} event. Requirements: - the caller must be `account`. May emit a {RoleRevoked} event."
      },
      "repay(uint256,uint256)": {
        "details": "the amount should not be too low, or more than the debt itself",
        "params": {
          "accountID": "is the vault's ID",
          "amount": "is the amount to pay back"
        }
      },
      "revokeRole(bytes32,address)": {
        "details": "Revokes `role` from `account`. If `account` had been granted `role`, emits a {RoleRevoked} event. Requirements: - the caller must have ``role``'s admin role. May emit a {RoleRevoked} event."
      },
      "safeTransferFrom(address,address,uint256)": {
        "details": "See {IERC721-safeTransferFrom}."
      },
      "safeTransferFrom(address,address,uint256,bytes)": {
        "details": "See {IERC721-safeTransferFrom}."
      },
      "setApprovalForAll(address,bool)": {
        "details": "See {IERC721-setApprovalForAll}."
      },
      "symbol()": {
        "details": "See {IERC721Metadata-symbol}."
      },
      "tokenByIndex(uint256)": {
        "details": "See {IERC721Enumerable-tokenByIndex}."
      },
      "tokenOfOwnerByIndex(address,uint256)": {
        "details": "See {IERC721Enumerable-tokenOfOwnerByIndex}."
      },
      "tokenURI(uint256)": {
        "details": "See {IERC721Metadata-tokenURI}."
      },
      "totalSupply()": {
        "details": "See {IERC721Enumerable-totalSupply}."
      },
      "transferFrom(address,address,uint256)": {
        "details": "See {IERC721-transferFrom}."
      },
      "withdraw(uint256,uint256)": {
        "details": "Modifier: onlyAccountOwner: requires the owner to be the caller of the function, nonReentrant",
        "params": {
          "accountID": "is the vault's id",
          "amount": "is the amount to withdraw"
        }
      }
    },
    "version": 1
  },
  "userdoc": {
    "kind": "user",
    "methods": {
      "borrow(uint256,uint256)": {
        "notice": "borrows token from the vault and increases debt"
      },
      "calculateCollateralValue(uint256)": {
        "notice": "returns the collateral value"
      },
      "calculateLiquidatorReward(uint256)": {
        "notice": "Calculates the liquidators' reward"
      },
      "calculatePrincipalValue(uint256)": {
        "notice": "returns the principal value"
      },
      "deposit(uint256,uint256)": {
        "notice": "deposits the given amount of collateral to the vault"
      },
      "exists(uint256)": {
        "notice": "Checks if a vault with the given ID exists"
      },
      "getAvailableDebt()": {
        "notice": "Returns the maximum available debt"
      },
      "getCollateralPrice()": {
        "notice": "returns collateral price"
      },
      "getDebtPrice()": {
        "notice": "it will return principal Price"
      },
      "isLiquidatable(uint256)": {
        "notice": "Returns if the vault isLiquidatable"
      },
      "liquidate(uint256,uint256)": {
        "notice": "Liquidates accountID"
      },
      "liquidationThreshold()": {
        "notice": "Configurations "
      },
      "openAccount()": {
        "notice": "Creates a new vault and returns its id"
      },
      "repay(uint256,uint256)": {
        "notice": "pays back the token borrowed previously"
      },
      "smallAccountThreshold()": {
        "notice": "Liquidator cannot leave less than this amount when liquidationg the account"
      },
      "withdraw(uint256,uint256)": {
        "notice": "Withdrawls collateral from the vault and updates vault with the new amount"
      }
    },
    "version": 1
  },
  "storageLayout": {
    "storage": [
      {
        "astId": 507,
        "contract": "contracts/markets/SimpleInterestMarket.sol:SimpleInterestMarket",
        "label": "_status",
        "offset": 0,
        "slot": "0",
        "type": "t_uint256"
      },
      {
        "astId": 1583,
        "contract": "contracts/markets/SimpleInterestMarket.sol:SimpleInterestMarket",
        "label": "_name",
        "offset": 0,
        "slot": "1",
        "type": "t_string_storage"
      },
      {
        "astId": 1585,
        "contract": "contracts/markets/SimpleInterestMarket.sol:SimpleInterestMarket",
        "label": "_symbol",
        "offset": 0,
        "slot": "2",
        "type": "t_string_storage"
      },
      {
        "astId": 1589,
        "contract": "contracts/markets/SimpleInterestMarket.sol:SimpleInterestMarket",
        "label": "_owners",
        "offset": 0,
        "slot": "3",
        "type": "t_mapping(t_uint256,t_address)"
      },
      {
        "astId": 1593,
        "contract": "contracts/markets/SimpleInterestMarket.sol:SimpleInterestMarket",
        "label": "_balances",
        "offset": 0,
        "slot": "4",
        "type": "t_mapping(t_address,t_uint256)"
      },
      {
        "astId": 1597,
        "contract": "contracts/markets/SimpleInterestMarket.sol:SimpleInterestMarket",
        "label": "_tokenApprovals",
        "offset": 0,
        "slot": "5",
        "type": "t_mapping(t_uint256,t_address)"
      },
      {
        "astId": 1603,
        "contract": "contracts/markets/SimpleInterestMarket.sol:SimpleInterestMarket",
        "label": "_operatorApprovals",
        "offset": 0,
        "slot": "6",
        "type": "t_mapping(t_address,t_mapping(t_address,t_bool))"
      },
      {
        "astId": 2633,
        "contract": "contracts/markets/SimpleInterestMarket.sol:SimpleInterestMarket",
        "label": "_ownedTokens",
        "offset": 0,
        "slot": "7",
        "type": "t_mapping(t_address,t_mapping(t_uint256,t_uint256))"
      },
      {
        "astId": 2637,
        "contract": "contracts/markets/SimpleInterestMarket.sol:SimpleInterestMarket",
        "label": "_ownedTokensIndex",
        "offset": 0,
        "slot": "8",
        "type": "t_mapping(t_uint256,t_uint256)"
      },
      {
        "astId": 2640,
        "contract": "contracts/markets/SimpleInterestMarket.sol:SimpleInterestMarket",
        "label": "_allTokens",
        "offset": 0,
        "slot": "9",
        "type": "t_array(t_uint256)dyn_storage"
      },
      {
        "astId": 2644,
        "contract": "contracts/markets/SimpleInterestMarket.sol:SimpleInterestMarket",
        "label": "_allTokensIndex",
        "offset": 0,
        "slot": "10",
        "type": "t_mapping(t_uint256,t_uint256)"
      },
      {
        "astId": 4465,
        "contract": "contracts/markets/SimpleInterestMarket.sol:SimpleInterestMarket",
        "label": "totalAccountsCreated",
        "offset": 0,
        "slot": "11",
        "type": "t_uint256"
      },
      {
        "astId": 4477,
        "contract": "contracts/markets/SimpleInterestMarket.sol:SimpleInterestMarket",
        "label": "baseUri",
        "offset": 0,
        "slot": "12",
        "type": "t_string_storage"
      },
      {
        "astId": 8535,
        "contract": "contracts/markets/SimpleInterestMarket.sol:SimpleInterestMarket",
        "label": "collateralAmount",
        "offset": 0,
        "slot": "13",
        "type": "t_mapping(t_uint256,t_uint256)"
      },
      {
        "astId": 8539,
        "contract": "contracts/markets/SimpleInterestMarket.sol:SimpleInterestMarket",
        "label": "principalAmount",
        "offset": 0,
        "slot": "14",
        "type": "t_mapping(t_uint256,t_uint256)"
      },
      {
        "astId": 9745,
        "contract": "contracts/markets/SimpleInterestMarket.sol:SimpleInterestMarket",
        "label": "interestIndex",
        "offset": 0,
        "slot": "15",
        "type": "t_uint256"
      },
      {
        "astId": 9747,
        "contract": "contracts/markets/SimpleInterestMarket.sol:SimpleInterestMarket",
        "label": "lastUpdate",
        "offset": 0,
        "slot": "16",
        "type": "t_uint256"
      },
      {
        "astId": 9751,
        "contract": "contracts/markets/SimpleInterestMarket.sol:SimpleInterestMarket",
        "label": "accountInterestIndex",
        "offset": 0,
        "slot": "17",
        "type": "t_mapping(t_uint256,t_uint256)"
      },
      {
        "astId": 7516,
        "contract": "contracts/markets/SimpleInterestMarket.sol:SimpleInterestMarket",
        "label": "priceProvider",
        "offset": 0,
        "slot": "18",
        "type": "t_contract(IPriceProvider)4589"
      },
      {
        "astId": 7519,
        "contract": "contracts/markets/SimpleInterestMarket.sol:SimpleInterestMarket",
        "label": "liquidationThreshold",
        "offset": 0,
        "slot": "19",
        "type": "t_uint256"
      },
      {
        "astId": 7521,
        "contract": "contracts/markets/SimpleInterestMarket.sol:SimpleInterestMarket",
        "label": "liquidationMaxHR",
        "offset": 0,
        "slot": "20",
        "type": "t_uint256"
      },
      {
        "astId": 7524,
        "contract": "contracts/markets/SimpleInterestMarket.sol:SimpleInterestMarket",
        "label": "smallAccountThreshold",
        "offset": 0,
        "slot": "21",
        "type": "t_uint256"
      },
      {
        "astId": 7526,
        "contract": "contracts/markets/SimpleInterestMarket.sol:SimpleInterestMarket",
        "label": "closingFee",
        "offset": 0,
        "slot": "22",
        "type": "t_uint256"
      },
      {
        "astId": 7528,
        "contract": "contracts/markets/SimpleInterestMarket.sol:SimpleInterestMarket",
        "label": "treasuryAccountId",
        "offset": 0,
        "slot": "23",
        "type": "t_uint256"
      },
      {
        "astId": 7530,
        "contract": "contracts/markets/SimpleInterestMarket.sol:SimpleInterestMarket",
        "label": "liquidationPenalty",
        "offset": 0,
        "slot": "24",
        "type": "t_uint256"
      },
      {
        "astId": 7533,
        "contract": "contracts/markets/SimpleInterestMarket.sol:SimpleInterestMarket",
        "label": "collateralToken",
        "offset": 0,
        "slot": "25",
        "type": "t_contract(ERC20)1137"
      },
      {
        "astId": 7536,
        "contract": "contracts/markets/SimpleInterestMarket.sol:SimpleInterestMarket",
        "label": "debtToken",
        "offset": 0,
        "slot": "26",
        "type": "t_contract(ERC20)1137"
      },
      {
        "astId": 7580,
        "contract": "contracts/markets/SimpleInterestMarket.sol:SimpleInterestMarket",
        "label": "liquidatorRewards",
        "offset": 0,
        "slot": "27",
        "type": "t_mapping(t_address,t_uint256)"
      },
      {
        "astId": 24,
        "contract": "contracts/markets/SimpleInterestMarket.sol:SimpleInterestMarket",
        "label": "_roles",
        "offset": 0,
        "slot": "28",
        "type": "t_mapping(t_bytes32,t_struct(RoleData)19_storage)"
      },
      {
        "astId": 406,
        "contract": "contracts/markets/SimpleInterestMarket.sol:SimpleInterestMarket",
        "label": "_paused",
        "offset": 0,
        "slot": "29",
        "type": "t_bool"
      },
      {
        "astId": 8715,
        "contract": "contracts/markets/SimpleInterestMarket.sol:SimpleInterestMarket",
        "label": "dailyIssuanceLimit",
        "offset": 0,
        "slot": "30",
        "type": "t_uint256"
      },
      {
        "astId": 8717,
        "contract": "contracts/markets/SimpleInterestMarket.sol:SimpleInterestMarket",
        "label": "dailyIssuanceLeft",
        "offset": 0,
        "slot": "31",
        "type": "t_uint256"
      },
      {
        "astId": 8719,
        "contract": "contracts/markets/SimpleInterestMarket.sol:SimpleInterestMarket",
        "label": "lastIssuanceTime",
        "offset": 0,
        "slot": "32",
        "type": "t_uint256"
      },
      {
        "astId": 10057,
        "contract": "contracts/markets/SimpleInterestMarket.sol:SimpleInterestMarket",
        "label": "interestRate",
        "offset": 0,
        "slot": "33",
        "type": "t_uint256"
      },
      {
        "astId": 10059,
        "contract": "contracts/markets/SimpleInterestMarket.sol:SimpleInterestMarket",
        "label": "gracePeriod",
        "offset": 0,
        "slot": "34",
        "type": "t_uint256"
      }
    ],
    "types": {
      "t_address": {
        "encoding": "inplace",
        "label": "address",
        "numberOfBytes": "20"
      },
      "t_array(t_uint256)dyn_storage": {
        "base": "t_uint256",
        "encoding": "dynamic_array",
        "label": "uint256[]",
        "numberOfBytes": "32"
      },
      "t_bool": {
        "encoding": "inplace",
        "label": "bool",
        "numberOfBytes": "1"
      },
      "t_bytes32": {
        "encoding": "inplace",
        "label": "bytes32",
        "numberOfBytes": "32"
      },
      "t_contract(ERC20)1137": {
        "encoding": "inplace",
        "label": "contract ERC20",
        "numberOfBytes": "20"
      },
      "t_contract(IPriceProvider)4589": {
        "encoding": "inplace",
        "label": "contract IPriceProvider",
        "numberOfBytes": "20"
      },
      "t_mapping(t_address,t_bool)": {
        "encoding": "mapping",
        "key": "t_address",
        "label": "mapping(address => bool)",
        "numberOfBytes": "32",
        "value": "t_bool"
      },
      "t_mapping(t_address,t_mapping(t_address,t_bool))": {
        "encoding": "mapping",
        "key": "t_address",
        "label": "mapping(address => mapping(address => bool))",
        "numberOfBytes": "32",
        "value": "t_mapping(t_address,t_bool)"
      },
      "t_mapping(t_address,t_mapping(t_uint256,t_uint256))": {
        "encoding": "mapping",
        "key": "t_address",
        "label": "mapping(address => mapping(uint256 => uint256))",
        "numberOfBytes": "32",
        "value": "t_mapping(t_uint256,t_uint256)"
      },
      "t_mapping(t_address,t_uint256)": {
        "encoding": "mapping",
        "key": "t_address",
        "label": "mapping(address => uint256)",
        "numberOfBytes": "32",
        "value": "t_uint256"
      },
      "t_mapping(t_bytes32,t_struct(RoleData)19_storage)": {
        "encoding": "mapping",
        "key": "t_bytes32",
        "label": "mapping(bytes32 => struct AccessControl.RoleData)",
        "numberOfBytes": "32",
        "value": "t_struct(RoleData)19_storage"
      },
      "t_mapping(t_uint256,t_address)": {
        "encoding": "mapping",
        "key": "t_uint256",
        "label": "mapping(uint256 => address)",
        "numberOfBytes": "32",
        "value": "t_address"
      },
      "t_mapping(t_uint256,t_uint256)": {
        "encoding": "mapping",
        "key": "t_uint256",
        "label": "mapping(uint256 => uint256)",
        "numberOfBytes": "32",
        "value": "t_uint256"
      },
      "t_string_storage": {
        "encoding": "bytes",
        "label": "string",
        "numberOfBytes": "32"
      },
      "t_struct(RoleData)19_storage": {
        "encoding": "inplace",
        "label": "struct AccessControl.RoleData",
        "members": [
          {
            "astId": 16,
            "contract": "contracts/markets/SimpleInterestMarket.sol:SimpleInterestMarket",
            "label": "members",
            "offset": 0,
            "slot": "0",
            "type": "t_mapping(t_address,t_bool)"
          },
          {
            "astId": 18,
            "contract": "contracts/markets/SimpleInterestMarket.sol:SimpleInterestMarket",
            "label": "adminRole",
            "offset": 0,
            "slot": "1",
            "type": "t_bytes32"
          }
        ],
        "numberOfBytes": "64"
      },
      "t_uint256": {
        "encoding": "inplace",
        "label": "uint256",
        "numberOfBytes": "32"
      }
    }
  }
}