{
  "address": "0xF2505102e9314Fa00b290c00cA592061A7D5e052",
  "abi": [
    {
      "inputs": [
        {
          "internalType": "address",
          "name": "treasury",
          "type": "address"
        },
        {
          "internalType": "address",
          "name": "pairFactory",
          "type": "address"
        },
        {
          "internalType": "address",
          "name": "pair",
          "type": "address"
        }
      ],
      "stateMutability": "nonpayable",
      "type": "constructor"
    },
    {
      "inputs": [
        {
          "internalType": "address",
          "name": "principal",
          "type": "address"
        },
        {
          "internalType": "uint256",
          "name": "loanAmount",
          "type": "uint256"
        },
        {
          "internalType": "bytes",
          "name": "params",
          "type": "bytes"
        }
      ],
      "name": "_handleCallBack",
      "outputs": [],
      "stateMutability": "nonpayable",
      "type": "function"
    },
    {
      "inputs": [
        {
          "internalType": "address",
          "name": "iniator",
          "type": "address"
        },
        {
          "internalType": "uint256",
          "name": "",
          "type": "uint256"
        },
        {
          "internalType": "uint256",
          "name": "",
          "type": "uint256"
        },
        {
          "internalType": "bytes",
          "name": "data",
          "type": "bytes"
        }
      ],
      "name": "hook",
      "outputs": [],
      "stateMutability": "nonpayable",
      "type": "function"
    },
    {
      "inputs": [
        {
          "internalType": "address",
          "name": "flashLoanAsset",
          "type": "address"
        },
        {
          "internalType": "uint256",
          "name": "flashLoanAmount",
          "type": "uint256"
        },
        {
          "internalType": "bytes",
          "name": "liquidationParams",
          "type": "bytes"
        }
      ],
      "name": "liquidate",
      "outputs": [],
      "stateMutability": "nonpayable",
      "type": "function"
    },
    {
      "inputs": [],
      "name": "pair",
      "outputs": [
        {
          "internalType": "contract ISolidlyPair",
          "name": "",
          "type": "address"
        }
      ],
      "stateMutability": "view",
      "type": "function"
    },
    {
      "inputs": [],
      "name": "pairFactory",
      "outputs": [
        {
          "internalType": "contract ISolidlyPairFactory",
          "name": "",
          "type": "address"
        }
      ],
      "stateMutability": "view",
      "type": "function"
    }
  ],
  "transactionHash": "0xee582405c7694fd2f3118e23d0d4472d8e60f5cc7148e12ddb1b7cb2a3dcdcda",
  "args": [
    "0xD5a26DEBe9748F3d5fb292f74D91d8dB8A44E956",
    "0xc6366EFD0AF1d09171fe0EBF32c7943BB310832a",
    "0x7547d05dFf1DA6B4A2eBB3f0833aFE3C62ABD9a1"
  ],
  "numDeployments": 1,
  "solcInputHash": "a2f7662fc3b91f26fe1ddb2568b06733",
  "bytecode": "0x60c06040523480156200001157600080fd5b50604051620017773803806200177783398101604081905262000034916200007d565b600080546001600160a01b0319166001600160a01b0394851617905590821660a05216608052620000c7565b80516001600160a01b03811681146200007857600080fd5b919050565b6000806000606084860312156200009357600080fd5b6200009e8462000060565b9250620000ae6020850162000060565b9150620000be6040850162000060565b90509250925092565b60805160a05161165b6200011c6000396000818160df015261045f015260008181609c015281816104010152818161048e015281816105b701528181610669015281816109dc0152610b00015261165b6000f3fe608060405234801561001057600080fd5b50600436106100575760003560e01c8063825625a71461005c578063952f0923146100715780639a7bff7914610084578063a8aa1b3114610097578063e14f870d146100da575b600080fd5b61006f61006a366004610f56565b610101565b005b61006f61007f366004610f56565b610111565b61006f610092366004610faf565b6103f6565b6100be7f000000000000000000000000000000000000000000000000000000000000000081565b6040516001600160a01b03909116815260200160405180910390f35b6100be7f000000000000000000000000000000000000000000000000000000000000000081565b61010c8383836105b3565b505050565b6000818060200190518101906101279190611105565b90506000816000015190506000816001600160a01b031663f8d898986040518163ffffffff1660e01b81526004016020604051808303816000875af1158015610174573d6000803e3d6000fd5b505050506040513d601f19601f8201168201806040525081019061019891906111cd565b90506000826001600160a01b031663b2016bd46040518163ffffffff1660e01b81526004016020604051808303816000875af11580156101dc573d6000803e3d6000fd5b505050506040513d601f19601f8201168201806040525081019061020091906111cd565b845190915061021c906001600160a01b03841690600019610735565b866001600160a01b0316826001600160a01b0316146102705760405162461bcd60e51b815260206004820152600b60248201526a57726f6e67206c6f616e3f60a81b60448201526064015b60405180910390fd5b60005b84602001515181101561034757836001600160a01b031663d296d1f1866020015183815181106102a5576102a56111f1565b6020026020010151876040015184815181106102c3576102c36111f1565b60200260200101516040518363ffffffff1660e01b81526004016102f1929190918252602082015260400190565b6020604051808303816000875af1158015610310573d6000803e3d6000fd5b505050506040513d601f19601f820116820180604052508101906103349190611207565b508061033f81611236565b915050610273565b506000836001600160a01b0316632d0775016040518163ffffffff1660e01b81526004016020604051808303816000875af115801561038a573d6000803e3d6000fd5b505050506040513d601f19601f820116820180604052508101906103ae9190611207565b90506103c18284838a8960600151610820565b5060006103ce89896109d5565b6000549091506103eb906001600160a01b03868116911683610b9b565b505050505050505050565b336001600160a01b037f0000000000000000000000000000000000000000000000000000000000000000161461042b57600080fd5b6001600160a01b038416301461044057600080fd5b600081806020019051810190610456919061124f565b905060006127107f00000000000000000000000000000000000000000000000000000000000000006001600160a01b031663512b45ea7f00000000000000000000000000000000000000000000000000000000000000006001600160a01b03166322be3de16040518163ffffffff1660e01b8152600401602060405180830381865afa1580156104ea573d6000803e3d6000fd5b505050506040513d601f19601f8201168201806040525081019061050e91906112ee565b6040518263ffffffff1660e01b815260040161052e911515815260200190565b6020604051808303816000875af115801561054d573d6000803e3d6000fd5b505050506040513d601f19601f820116820180604052508101906105719190611207565b61057d90612711611309565b836020015161058c919061131c565b6105969190611333565b90506105ab8260000151828460400151610111565b505050505050565b60007f00000000000000000000000000000000000000000000000000000000000000006001600160a01b0316639d63848a6040518163ffffffff1660e01b815260040160408051808303816000875af1158015610614573d6000803e3d6000fd5b505050506040513d601f19601f820116820180604052508101906106389190611355565b509050600080826001600160a01b0316866001600160a01b03161461065f57600085610663565b8460005b915091507f00000000000000000000000000000000000000000000000000000000000000006001600160a01b031663022c0d9f83833060405180606001604052808c6001600160a01b031681526020018b81526020018a8152506040516020016106cd91906113bb565b6040516020818303038152906040526040518563ffffffff1660e01b81526004016106fb94939291906113f3565b600060405180830381600087803b15801561071557600080fd5b505af1158015610729573d6000803e3d6000fd5b50505050505050505050565b604051636eb1769f60e11b81523060048201526001600160a01b038381166024830152600091839186169063dd62ed3e90604401602060405180830381865afa158015610786573d6000803e3d6000fd5b505050506040513d601f19601f820116820180604052508101906107aa9190611207565b6107b49190611309565b6040516001600160a01b03851660248201526044810182905290915061081a90859063095ea7b360e01b906064015b60408051601f198184030181529190526020810180516001600160e01b03166001600160e01b031990931692909217909152610bcb565b50505050565b600080600083806020019051810190610839919061142b565b9150915080516000036108505785925050506109cc565b6108646001600160a01b0389168388610735565b604051636eb1769f60e11b81523060048201526001600160a01b0383811660248301528791908a169063dd62ed3e90604401602060405180830381865afa1580156108b3573d6000803e3d6000fd5b505050506040513d601f19601f820116820180604052508101906108d79190611207565b101561091c5760405162461bcd60e51b81526020600482015260146024820152736e6f7420656e6f75676820616c6c6f77616e636560601b6044820152606401610267565b604051631e82ecdb60e31b815282906000906001600160a01b0383169063f41766d890610955908b908b90889030904290600401611519565b6000604051808303816000875af1158015610974573d6000803e3d6000fd5b505050506040513d6000823e601f3d908101601f1916820160405261099c91908101906115ae565b905080600182516109ad91906115e3565b815181106109bd576109bd6111f1565b60200260200101519450505050505b95945050505050565b60008060007f00000000000000000000000000000000000000000000000000000000000000006001600160a01b0316639d63848a6040518163ffffffff1660e01b815260040160408051808303816000875af1158015610a39573d6000803e3d6000fd5b505050506040513d601f19601f82011682018060405250810190610a5d9190611355565b90925090506001600160a01b038083169086161415600081610a7f5782610a81565b835b6040516370a0823160e01b81523060048201529091506000906001600160a01b038316906370a0823190602401602060405180830381865afa158015610acb573d6000803e3d6000fd5b505050506040513d601f19601f82011682018060405250810190610aef9190611207565b9050610b256001600160a01b0383167f000000000000000000000000000000000000000000000000000000000000000083610b9b565b6040516370a0823160e01b81523060048201526001600160a01b038916906370a0823190602401602060405180830381865afa158015610b69573d6000803e3d6000fd5b505050506040513d601f19601f82011682018060405250810190610b8d9190611207565b955050505050505b92915050565b6040516001600160a01b03831660248201526044810182905261010c90849063a9059cbb60e01b906064016107e3565b6000610c20826040518060400160405280602081526020017f5361666545524332303a206c6f772d6c6576656c2063616c6c206661696c6564815250856001600160a01b0316610c9d9092919063ffffffff16565b80519091501561010c5780806020019051810190610c3e91906112ee565b61010c5760405162461bcd60e51b815260206004820152602a60248201527f5361666545524332303a204552433230206f7065726174696f6e20646964206e6044820152691bdd081cdd58d8d9595960b21b6064820152608401610267565b6060610cac8484600085610cb4565b949350505050565b606082471015610d155760405162461bcd60e51b815260206004820152602660248201527f416464726573733a20696e73756666696369656e742062616c616e636520666f6044820152651c8818d85b1b60d21b6064820152608401610267565b600080866001600160a01b03168587604051610d3191906115f6565b60006040518083038185875af1925050503d8060008114610d6e576040519150601f19603f3d011682016040523d82523d6000602084013e610d73565b606091505b5091509150610d8487838387610d8f565b979650505050505050565b60608315610dfe578251600003610df7576001600160a01b0385163b610df75760405162461bcd60e51b815260206004820152601d60248201527f416464726573733a2063616c6c20746f206e6f6e2d636f6e74726163740000006044820152606401610267565b5081610cac565b610cac8383815115610e135781518083602001fd5b8060405162461bcd60e51b81526004016102679190611612565b6001600160a01b0381168114610e4257600080fd5b50565b634e487b7160e01b600052604160045260246000fd5b6040516080810167ffffffffffffffff81118282101715610e7e57610e7e610e45565b60405290565b6040516060810167ffffffffffffffff81118282101715610e7e57610e7e610e45565b604051601f8201601f1916810167ffffffffffffffff81118282101715610ed057610ed0610e45565b604052919050565b600067ffffffffffffffff821115610ef257610ef2610e45565b50601f01601f191660200190565b600082601f830112610f1157600080fd5b8135610f24610f1f82610ed8565b610ea7565b818152846020838601011115610f3957600080fd5b816020850160208301376000918101602001919091529392505050565b600080600060608486031215610f6b57600080fd5b8335610f7681610e2d565b925060208401359150604084013567ffffffffffffffff811115610f9957600080fd5b610fa586828701610f00565b9150509250925092565b60008060008060808587031215610fc557600080fd5b8435610fd081610e2d565b93506020850135925060408501359150606085013567ffffffffffffffff811115610ffa57600080fd5b61100687828801610f00565b91505092959194509250565b600067ffffffffffffffff82111561102c5761102c610e45565b5060051b60200190565b600082601f83011261104757600080fd5b81516020611057610f1f83611012565b82815260059290921b8401810191818101908684111561107657600080fd5b8286015b84811015611091578051835291830191830161107a565b509695505050505050565b60005b838110156110b757818101518382015260200161109f565b50506000910152565b600082601f8301126110d157600080fd5b81516110df610f1f82610ed8565b8181528460208386010111156110f457600080fd5b610cac82602083016020870161109c565b60006020828403121561111757600080fd5b815167ffffffffffffffff8082111561112f57600080fd5b908301906080828603121561114357600080fd5b61114b610e5b565b825161115681610e2d565b815260208301518281111561116a57600080fd5b61117687828601611036565b60208301525060408301518281111561118e57600080fd5b61119a87828601611036565b6040830152506060830151828111156111b257600080fd5b6111be878286016110c0565b60608301525095945050505050565b6000602082840312156111df57600080fd5b81516111ea81610e2d565b9392505050565b634e487b7160e01b600052603260045260246000fd5b60006020828403121561121957600080fd5b5051919050565b634e487b7160e01b600052601160045260246000fd5b60006001820161124857611248611220565b5060010190565b60006020828403121561126157600080fd5b815167ffffffffffffffff8082111561127957600080fd5b908301906060828603121561128d57600080fd5b611295610e84565b82516112a081610e2d565b8152602083810151908201526040830151828111156112be57600080fd5b6112ca878286016110c0565b60408301525095945050505050565b805180151581146112e957600080fd5b919050565b60006020828403121561130057600080fd5b6111ea826112d9565b80820180821115610b9557610b95611220565b8082028115828204841417610b9557610b95611220565b60008261135057634e487b7160e01b600052601260045260246000fd5b500490565b6000806040838503121561136857600080fd5b825161137381610e2d565b602084015190925061138481610e2d565b809150509250929050565b600081518084526113a781602086016020860161109c565b601f01601f19169290920160200192915050565b602081526001600160a01b0382511660208201526020820151604082015260006040830151606080840152610cac608084018261138f565b8481528360208201526001600160a01b0383166040820152608060608201526000611421608083018461138f565b9695505050505050565b600080604080848603121561143f57600080fd5b835161144a81610e2d565b8093505060208085015167ffffffffffffffff81111561146957600080fd5b8501601f8101871361147a57600080fd5b8051611488610f1f82611012565b8181526060918202830184019184820191908a8411156114a757600080fd5b938501935b838510156115085780858c0312156114c45760008081fd5b6114cc610e84565b85516114d781610e2d565b8152858701516114e681610e2d565b818801526114f58689016112d9565b81890152835293840193918501916114ac565b508096505050505050509250929050565b600060a0820187835260208781850152604060a08186015282885180855260c087019150838a01945060005b8181101561158257855180516001600160a01b03908116855286820151168685015284015115158484015294840194606090920191600101611545565b50506001600160a01b0388166060870152935061159e92505050565b8260808301529695505050505050565b6000602082840312156115c057600080fd5b815167ffffffffffffffff8111156115d757600080fd5b610cac84828501611036565b81810381811115610b9557610b95611220565b6000825161160881846020870161109c565b9190910192915050565b6020815260006111ea602083018461138f56fea264697066735822122027581167cbea71afa7080bc07d4e01a490c1e404cd4c93a881f42ca2f03c1b0064736f6c63430008110033",
  "devdoc": {
    "kind": "dev",
    "methods": {},
    "version": 1
  },
  "userdoc": {
    "kind": "user",
    "methods": {},
    "version": 1
  },
  "storageLayout": {
    "storage": [
      {
        "astId": 13883,
        "contract": "contracts/liquidation/SimpleSolidlyLiqu.sol:SimpleSolidlyLiqu",
        "label": "treasury",
        "offset": 0,
        "slot": "0",
        "type": "t_address"
      }
    ],
    "types": {
      "t_address": {
        "encoding": "inplace",
        "label": "address",
        "numberOfBytes": "20"
      }
    }
  }
}