{
  "address": "0x417aB5a2DecD3920813E368E793B63b5Ddf82367",
  "abi": [
    {
      "inputs": [
        {
          "internalType": "address",
          "name": "_baseToken",
          "type": "address"
        },
        {
          "internalType": "uint8",
          "name": "_decimals",
          "type": "uint8"
        }
      ],
      "stateMutability": "nonpayable",
      "type": "constructor"
    },
    {
      "inputs": [
        {
          "internalType": "address",
          "name": "_token",
          "type": "address"
        }
      ],
      "name": "NoOracle",
      "type": "error"
    },
    {
      "anonymous": false,
      "inputs": [
        {
          "indexed": true,
          "internalType": "address",
          "name": "previousOwner",
          "type": "address"
        },
        {
          "indexed": true,
          "internalType": "address",
          "name": "newOwner",
          "type": "address"
        }
      ],
      "name": "OwnershipTransferred",
      "type": "event"
    },
    {
      "anonymous": false,
      "inputs": [
        {
          "indexed": true,
          "internalType": "address",
          "name": "_token",
          "type": "address"
        },
        {
          "indexed": false,
          "internalType": "uint256",
          "name": "_price",
          "type": "uint256"
        }
      ],
      "name": "PriceUpdated",
      "type": "event"
    },
    {
      "anonymous": false,
      "inputs": [
        {
          "indexed": false,
          "internalType": "address",
          "name": "token",
          "type": "address"
        },
        {
          "indexed": false,
          "internalType": "address",
          "name": "oracle",
          "type": "address"
        }
      ],
      "name": "SetTokenOracle",
      "type": "event"
    },
    {
      "inputs": [],
      "name": "BASE_TOKEN",
      "outputs": [
        {
          "internalType": "address",
          "name": "",
          "type": "address"
        }
      ],
      "stateMutability": "view",
      "type": "function"
    },
    {
      "inputs": [],
      "name": "DECIMALS",
      "outputs": [
        {
          "internalType": "uint8",
          "name": "",
          "type": "uint8"
        }
      ],
      "stateMutability": "view",
      "type": "function"
    },
    {
      "inputs": [
        {
          "internalType": "address",
          "name": "token",
          "type": "address"
        }
      ],
      "name": "getCurrentPrice",
      "outputs": [
        {
          "internalType": "uint256",
          "name": "",
          "type": "uint256"
        }
      ],
      "stateMutability": "view",
      "type": "function"
    },
    {
      "inputs": [
        {
          "internalType": "address",
          "name": "token0",
          "type": "address"
        },
        {
          "internalType": "address",
          "name": "token1",
          "type": "address"
        }
      ],
      "name": "getCurrentPriceDenominatedIn",
      "outputs": [
        {
          "internalType": "uint256",
          "name": "",
          "type": "uint256"
        }
      ],
      "stateMutability": "view",
      "type": "function"
    },
    {
      "inputs": [
        {
          "internalType": "address",
          "name": "token",
          "type": "address"
        }
      ],
      "name": "getSafePrice",
      "outputs": [
        {
          "internalType": "uint256",
          "name": "",
          "type": "uint256"
        }
      ],
      "stateMutability": "view",
      "type": "function"
    },
    {
      "inputs": [
        {
          "internalType": "address",
          "name": "token0",
          "type": "address"
        },
        {
          "internalType": "address",
          "name": "token1",
          "type": "address"
        }
      ],
      "name": "getSafePriceDenominatedIn",
      "outputs": [
        {
          "internalType": "uint256",
          "name": "",
          "type": "uint256"
        }
      ],
      "stateMutability": "view",
      "type": "function"
    },
    {
      "inputs": [],
      "name": "owner",
      "outputs": [
        {
          "internalType": "address",
          "name": "",
          "type": "address"
        }
      ],
      "stateMutability": "view",
      "type": "function"
    },
    {
      "inputs": [
        {
          "internalType": "address",
          "name": "",
          "type": "address"
        }
      ],
      "name": "priceOracle",
      "outputs": [
        {
          "internalType": "address",
          "name": "",
          "type": "address"
        }
      ],
      "stateMutability": "view",
      "type": "function"
    },
    {
      "inputs": [],
      "name": "renounceOwnership",
      "outputs": [],
      "stateMutability": "nonpayable",
      "type": "function"
    },
    {
      "inputs": [
        {
          "internalType": "address",
          "name": "token",
          "type": "address"
        },
        {
          "internalType": "address",
          "name": "oracle",
          "type": "address"
        }
      ],
      "name": "setTokenOracle",
      "outputs": [],
      "stateMutability": "nonpayable",
      "type": "function"
    },
    {
      "inputs": [
        {
          "internalType": "address",
          "name": "newOwner",
          "type": "address"
        }
      ],
      "name": "transferOwnership",
      "outputs": [],
      "stateMutability": "nonpayable",
      "type": "function"
    },
    {
      "inputs": [
        {
          "internalType": "address",
          "name": "token",
          "type": "address"
        }
      ],
      "name": "updateSafePrice",
      "outputs": [
        {
          "internalType": "uint256",
          "name": "",
          "type": "uint256"
        }
      ],
      "stateMutability": "nonpayable",
      "type": "function"
    }
  ],
  "transactionHash": "0x1127fe96affbc11d86a4ae3d9924ec90fa2d30b8e0a6c51a2d424eea606a9493",
  "args": [
    "0x0000000000000000000000000000000000000000",
    18
  ],
  "numDeployments": 1,
  "solcInputHash": "9ea5598c98b5ac8d099413bda9a48841",
  "bytecode": "0x60c060405234801561001057600080fd5b50604051610b3d380380610b3d83398101604081905261002f9161009f565b6100383361004f565b60ff1660a0526001600160a01b03166080526100eb565b600080546001600160a01b038381166001600160a01b0319831681178455604051919092169283917f8be0079c531659141344cd1fd0a4f28419497f9722a3daafe3b4186f6b6457e09190a35050565b600080604083850312156100b257600080fd5b82516001600160a01b03811681146100c957600080fd5b602084015190925060ff811681146100e057600080fd5b809150509250929050565b60805160a0516109f66101476000396000818161012b015281816102c00152818161031a015281816103890152818161057c015261074f01526000818160be0152818161034d01528181610540015261071301526109f66000f3fe608060405234801561001057600080fd5b50600436106100b45760003560e01c806384cc315b1161007157806384cc315b1461019d5780638da5cb5b146101b0578063a86a49ff146101c1578063bf378a12146101d4578063e279ccee146101e7578063f2fde38b146101fa57600080fd5b8063210663e4146100b95780632951f1b2146100fd5780632e0f2625146101265780633c75f4481461015f578063715018a614610180578063764467cc1461018a575b600080fd5b6100e07f000000000000000000000000000000000000000000000000000000000000000081565b6040516001600160a01b0390911681526020015b60405180910390f35b6100e061010b366004610817565b6001602052600090815260409020546001600160a01b031681565b61014d7f000000000000000000000000000000000000000000000000000000000000000081565b60405160ff90911681526020016100f4565b61017261016d366004610817565b61020d565b6040519081526020016100f4565b61018861021e565b005b610188610198366004610832565b610232565b6101726101ab366004610817565b6102a5565b6000546001600160a01b03166100e0565b6101726101cf366004610832565b6102b0565b6101726101e2366004610832565b61030a565b6101726101f5366004610817565b610349565b610188610208366004610817565b6104c3565b60006102188261053c565b92915050565b610226610665565b61023060006106bf565b565b61023a610665565b6001600160a01b0382811660008181526001602090815260409182902080546001600160a01b031916948616948517905581519283528201929092527f6bc4fdedd1957cfe13a110158929940440c759893f647a147e8a3dfd3c531dd0910160405180910390a15050565b60006102188261070f565b60006102bb8261070f565b6102e67f0000000000000000000000000000000000000000000000000000000000000000600a61095f565b6102ef8561070f565b6102f9919061096e565b6103039190610985565b9392505050565b60006103158261053c565b6103407f0000000000000000000000000000000000000000000000000000000000000000600a61095f565b6102ef8561053c565b60007f00000000000000000000000000000000000000000000000000000000000000006001600160a01b0316826001600160a01b0316036103af576102187f0000000000000000000000000000000000000000000000000000000000000000600a61095f565b6001600160a01b0380831660009081526001602052604090205416806103f857604051631e671e8160e11b81526001600160a01b03841660048201526024015b60405180910390fd5b6001600160a01b0383811660008181526001602052604080822054905163713ce67760e11b815260048101939093529092169063e279ccee906024016020604051808303816000875af1158015610453573d6000803e3d6000fd5b505050506040513d601f19601f8201168201806040525081019061047791906109a7565b9050836001600160a01b03167f0d86730737b142fc160892fa8a0f2db687a92a0e294d1ad70624cf5acef03b84826040516104b491815260200190565b60405180910390a29392505050565b6104cb610665565b6001600160a01b0381166105305760405162461bcd60e51b815260206004820152602660248201527f4f776e61626c653a206e6577206f776e657220697320746865207a65726f206160448201526564647265737360d01b60648201526084016103ef565b610539816106bf565b50565b60007f00000000000000000000000000000000000000000000000000000000000000006001600160a01b0316826001600160a01b0316036105a2576102187f0000000000000000000000000000000000000000000000000000000000000000600a61095f565b6001600160a01b0380831660009081526001602052604090205416806105e657604051631e671e8160e11b81526001600160a01b03841660048201526024016103ef565b6001600160a01b038381166000818152600160205260409081902054905163078ebe8960e31b8152600481019290925290911690633c75f448906024015b602060405180830381865afa158015610641573d6000803e3d6000fd5b505050506040513d601f19601f8201168201806040525081019061030391906109a7565b6000546001600160a01b031633146102305760405162461bcd60e51b815260206004820181905260248201527f4f776e61626c653a2063616c6c6572206973206e6f7420746865206f776e657260448201526064016103ef565b600080546001600160a01b038381166001600160a01b0319831681178455604051919092169283917f8be0079c531659141344cd1fd0a4f28419497f9722a3daafe3b4186f6b6457e09190a35050565b60007f00000000000000000000000000000000000000000000000000000000000000006001600160a01b0316826001600160a01b031603610775576102187f0000000000000000000000000000000000000000000000000000000000000000600a61095f565b6001600160a01b0380831660009081526001602052604090205416806107b957604051631e671e8160e11b81526001600160a01b03841660048201526024016103ef565b6001600160a01b03838116600081815260016020526040908190205490516384cc315b60e01b81526004810192909252909116906384cc315b90602401610624565b80356001600160a01b038116811461081257600080fd5b919050565b60006020828403121561082957600080fd5b610303826107fb565b6000806040838503121561084557600080fd5b61084e836107fb565b915061085c602084016107fb565b90509250929050565b634e487b7160e01b600052601160045260246000fd5b600181815b808511156108b657816000190482111561089c5761089c610865565b808516156108a957918102915b93841c9390800290610880565b509250929050565b6000826108cd57506001610218565b816108da57506000610218565b81600181146108f057600281146108fa57610916565b6001915050610218565b60ff84111561090b5761090b610865565b50506001821b610218565b5060208310610133831016604e8410600b8410161715610939575081810a610218565b610943838361087b565b806000190482111561095757610957610865565b029392505050565b600061030360ff8416836108be565b808202811582820484141761021857610218610865565b6000826109a257634e487b7160e01b600052601260045260246000fd5b500490565b6000602082840312156109b957600080fd5b505191905056fea26469706673582212204735d4ff6c9bd846292c7bd8ace8e7d0959c7b2fd3a27db339b4ef86be161a8364736f6c63430008110033",
  "devdoc": {
    "kind": "dev",
    "methods": {
      "constructor": {
        "details": "sets up the Price Oracle"
      },
      "owner()": {
        "details": "Returns the address of the current owner."
      },
      "renounceOwnership()": {
        "details": "Leaves the contract without owner. It will not be possible to call `onlyOwner` functions anymore. Can only be called by the current owner. NOTE: Renouncing ownership will leave the contract without an owner, thereby removing any functionality that is only available to the owner."
      },
      "transferOwnership(address)": {
        "details": "Transfers ownership of the contract to a new account (`newOwner`). Can only be called by the current owner."
      }
    },
    "version": 1
  },
  "userdoc": {
    "kind": "user",
    "methods": {},
    "version": 1
  },
  "storageLayout": {
    "storage": [
      {
        "astId": 442,
        "contract": "contracts/oracles/PriceProvider.sol:PriceProvider",
        "label": "_owner",
        "offset": 0,
        "slot": "0",
        "type": "t_address"
      },
      {
        "astId": 15207,
        "contract": "contracts/oracles/PriceProvider.sol:PriceProvider",
        "label": "priceOracle",
        "offset": 0,
        "slot": "1",
        "type": "t_mapping(t_address,t_address)"
      }
    ],
    "types": {
      "t_address": {
        "encoding": "inplace",
        "label": "address",
        "numberOfBytes": "20"
      },
      "t_mapping(t_address,t_address)": {
        "encoding": "mapping",
        "key": "t_address",
        "label": "mapping(address => address)",
        "numberOfBytes": "32",
        "value": "t_address"
      }
    }
  }
}